{
  "contractName": "MultiStageERC721",
  "abi": [
    {
      "inputs": [
        {
          "internalType": "string",
          "name": "_name",
          "type": "string"
        },
        {
          "internalType": "string",
          "name": "_symbol",
          "type": "string"
        },
        {
          "internalType": "string",
          "name": "_baseUri",
          "type": "string"
        }
      ],
      "stateMutability": "nonpayable",
      "type": "constructor"
    },
    {
      "anonymous": false,
      "inputs": [
        {
          "indexed": true,
          "internalType": "address",
          "name": "owner",
          "type": "address"
        },
        {
          "indexed": true,
          "internalType": "address",
          "name": "approved",
          "type": "address"
        },
        {
          "indexed": true,
          "internalType": "uint256",
          "name": "tokenId",
          "type": "uint256"
        }
      ],
      "name": "Approval",
      "type": "event"
    },
    {
      "anonymous": false,
      "inputs": [
        {
          "indexed": true,
          "internalType": "address",
          "name": "owner",
          "type": "address"
        },
        {
          "indexed": true,
          "internalType": "address",
          "name": "operator",
          "type": "address"
        },
        {
          "indexed": false,
          "internalType": "bool",
          "name": "approved",
          "type": "bool"
        }
      ],
      "name": "ApprovalForAll",
      "type": "event"
    },
    {
      "anonymous": false,
      "inputs": [
        {
          "indexed": false,
          "internalType": "uint256",
          "name": "newPrice",
          "type": "uint256"
        }
      ],
      "name": "MintPriceChanged",
      "type": "event"
    },
    {
      "anonymous": false,
      "inputs": [
        {
          "indexed": true,
          "internalType": "bytes32",
          "name": "role",
          "type": "bytes32"
        },
        {
          "indexed": true,
          "internalType": "bytes32",
          "name": "previousAdminRole",
          "type": "bytes32"
        },
        {
          "indexed": true,
          "internalType": "bytes32",
          "name": "newAdminRole",
          "type": "bytes32"
        }
      ],
      "name": "RoleAdminChanged",
      "type": "event"
    },
    {
      "anonymous": false,
      "inputs": [
        {
          "indexed": true,
          "internalType": "bytes32",
          "name": "role",
          "type": "bytes32"
        },
        {
          "indexed": true,
          "internalType": "address",
          "name": "account",
          "type": "address"
        },
        {
          "indexed": true,
          "internalType": "address",
          "name": "sender",
          "type": "address"
        }
      ],
      "name": "RoleGranted",
      "type": "event"
    },
    {
      "anonymous": false,
      "inputs": [
        {
          "indexed": true,
          "internalType": "bytes32",
          "name": "role",
          "type": "bytes32"
        },
        {
          "indexed": true,
          "internalType": "address",
          "name": "account",
          "type": "address"
        },
        {
          "indexed": true,
          "internalType": "address",
          "name": "sender",
          "type": "address"
        }
      ],
      "name": "RoleRevoked",
      "type": "event"
    },
    {
      "anonymous": false,
      "inputs": [
        {
          "indexed": false,
          "internalType": "uint256",
          "name": "tokenIndex",
          "type": "uint256"
        },
        {
          "indexed": false,
          "internalType": "address",
          "name": "minter",
          "type": "address"
        },
        {
          "indexed": false,
          "internalType": "enum MultiStageERC721.TokenSaleState",
          "name": "_tokenSaleState",
          "type": "uint8"
        }
      ],
      "name": "TokenMinted",
      "type": "event"
    },
    {
      "anonymous": false,
      "inputs": [
        {
          "indexed": false,
          "internalType": "uint256",
          "name": "tokenId",
          "type": "uint256"
        },
        {
          "indexed": false,
          "internalType": "string",
          "name": "uri",
          "type": "string"
        }
      ],
      "name": "TokenUriUpdated",
      "type": "event"
    },
    {
      "anonymous": false,
      "inputs": [
        {
          "indexed": true,
          "internalType": "address",
          "name": "from",
          "type": "address"
        },
        {
          "indexed": true,
          "internalType": "address",
          "name": "to",
          "type": "address"
        },
        {
          "indexed": true,
          "internalType": "uint256",
          "name": "tokenId",
          "type": "uint256"
        }
      ],
      "name": "Transfer",
      "type": "event"
    },
    {
      "inputs": [],
      "name": "DEFAULT_ADMIN_ROLE",
      "outputs": [
        {
          "internalType": "bytes32",
          "name": "",
          "type": "bytes32"
        }
      ],
      "stateMutability": "view",
      "type": "function"
    },
    {
      "inputs": [],
      "name": "MAX_PER_TX",
      "outputs": [
        {
          "internalType": "uint256",
          "name": "",
          "type": "uint256"
        }
      ],
      "stateMutability": "view",
      "type": "function"
    },
    {
      "inputs": [],
      "name": "MAX_RESERVED",
      "outputs": [
        {
          "internalType": "uint256",
          "name": "",
          "type": "uint256"
        }
      ],
      "stateMutability": "view",
      "type": "function"
    },
    {
      "inputs": [],
      "name": "MAX_SUPPLY",
      "outputs": [
        {
          "internalType": "uint256",
          "name": "",
          "type": "uint256"
        }
      ],
      "stateMutability": "view",
      "type": "function"
    },
    {
      "inputs": [],
      "name": "PROJECT_ADMINS_ROLE",
      "outputs": [
        {
          "internalType": "bytes32",
          "name": "",
          "type": "bytes32"
        }
      ],
      "stateMutability": "view",
      "type": "function"
    },
    {
      "inputs": [
        {
          "internalType": "address",
          "name": "to",
          "type": "address"
        },
        {
          "internalType": "uint256",
          "name": "tokenId",
          "type": "uint256"
        }
      ],
      "name": "approve",
      "outputs": [],
      "stateMutability": "nonpayable",
      "type": "function"
    },
    {
      "inputs": [
        {
          "internalType": "address",
          "name": "owner",
          "type": "address"
        }
      ],
      "name": "balanceOf",
      "outputs": [
        {
          "internalType": "uint256",
          "name": "",
          "type": "uint256"
        }
      ],
      "stateMutability": "view",
      "type": "function"
    },
    {
      "inputs": [
        {
          "internalType": "uint256",
          "name": "tokenId",
          "type": "uint256"
        }
      ],
      "name": "getApproved",
      "outputs": [
        {
          "internalType": "address",
          "name": "",
          "type": "address"
        }
      ],
      "stateMutability": "view",
      "type": "function"
    },
    {
      "inputs": [
        {
          "internalType": "bytes32",
          "name": "role",
          "type": "bytes32"
        }
      ],
      "name": "getRoleAdmin",
      "outputs": [
        {
          "internalType": "bytes32",
          "name": "",
          "type": "bytes32"
        }
      ],
      "stateMutability": "view",
      "type": "function"
    },
    {
      "inputs": [
        {
          "internalType": "bytes32",
          "name": "role",
          "type": "bytes32"
        },
        {
          "internalType": "address",
          "name": "account",
          "type": "address"
        }
      ],
      "name": "grantRole",
      "outputs": [],
      "stateMutability": "nonpayable",
      "type": "function"
    },
    {
      "inputs": [
        {
          "internalType": "bytes32",
          "name": "role",
          "type": "bytes32"
        },
        {
          "internalType": "address",
          "name": "account",
          "type": "address"
        }
      ],
      "name": "hasRole",
      "outputs": [
        {
          "internalType": "bool",
          "name": "",
          "type": "bool"
        }
      ],
      "stateMutability": "view",
      "type": "function"
    },
    {
      "inputs": [
        {
          "internalType": "address",
          "name": "owner",
          "type": "address"
        },
        {
          "internalType": "address",
          "name": "operator",
          "type": "address"
        }
      ],
      "name": "isApprovedForAll",
      "outputs": [
        {
          "internalType": "bool",
          "name": "",
          "type": "bool"
        }
      ],
      "stateMutability": "view",
      "type": "function"
    },
    {
      "inputs": [],
      "name": "mintPrice",
      "outputs": [
        {
          "internalType": "uint256",
          "name": "",
          "type": "uint256"
        }
      ],
      "stateMutability": "view",
      "type": "function"
    },
    {
      "inputs": [],
      "name": "name",
      "outputs": [
        {
          "internalType": "string",
          "name": "",
          "type": "string"
        }
      ],
      "stateMutability": "view",
      "type": "function"
    },
    {
      "inputs": [
        {
          "internalType": "uint256",
          "name": "tokenId",
          "type": "uint256"
        }
      ],
      "name": "ownerOf",
      "outputs": [
        {
          "internalType": "address",
          "name": "",
          "type": "address"
        }
      ],
      "stateMutability": "view",
      "type": "function"
    },
    {
      "inputs": [
        {
          "internalType": "address",
          "name": "",
          "type": "address"
        }
      ],
      "name": "presaleParticipants",
      "outputs": [
        {
          "internalType": "uint256",
          "name": "",
          "type": "uint256"
        }
      ],
      "stateMutability": "view",
      "type": "function"
    },
    {
      "inputs": [],
      "name": "provenanceHash",
      "outputs": [
        {
          "internalType": "string",
          "name": "",
          "type": "string"
        }
      ],
      "stateMutability": "view",
      "type": "function"
    },
    {
      "inputs": [
        {
          "internalType": "bytes32",
          "name": "role",
          "type": "bytes32"
        },
        {
          "internalType": "address",
          "name": "account",
          "type": "address"
        }
      ],
      "name": "renounceRole",
      "outputs": [],
      "stateMutability": "nonpayable",
      "type": "function"
    },
    {
      "inputs": [
        {
          "internalType": "bytes32",
          "name": "role",
          "type": "bytes32"
        },
        {
          "internalType": "address",
          "name": "account",
          "type": "address"
        }
      ],
      "name": "revokeRole",
      "outputs": [],
      "stateMutability": "nonpayable",
      "type": "function"
    },
    {
      "inputs": [
        {
          "internalType": "address",
          "name": "from",
          "type": "address"
        },
        {
          "internalType": "address",
          "name": "to",
          "type": "address"
        },
        {
          "internalType": "uint256",
          "name": "tokenId",
          "type": "uint256"
        }
      ],
      "name": "safeTransferFrom",
      "outputs": [],
      "stateMutability": "nonpayable",
      "type": "function"
    },
    {
      "inputs": [
        {
          "internalType": "address",
          "name": "from",
          "type": "address"
        },
        {
          "internalType": "address",
          "name": "to",
          "type": "address"
        },
        {
          "internalType": "uint256",
          "name": "tokenId",
          "type": "uint256"
        },
        {
          "internalType": "bytes",
          "name": "_data",
          "type": "bytes"
        }
      ],
      "name": "safeTransferFrom",
      "outputs": [],
      "stateMutability": "nonpayable",
      "type": "function"
    },
    {
      "inputs": [
        {
          "internalType": "address",
          "name": "operator",
          "type": "address"
        },
        {
          "internalType": "bool",
          "name": "approved",
          "type": "bool"
        }
      ],
      "name": "setApprovalForAll",
      "outputs": [],
      "stateMutability": "nonpayable",
      "type": "function"
    },
    {
      "inputs": [],
      "name": "symbol",
      "outputs": [
        {
          "internalType": "string",
          "name": "",
          "type": "string"
        }
      ],
      "stateMutability": "view",
      "type": "function"
    },
    {
      "inputs": [],
      "name": "tokenSaleState",
      "outputs": [
        {
          "internalType": "enum MultiStageERC721.TokenSaleState",
          "name": "",
          "type": "uint8"
        }
      ],
      "stateMutability": "view",
      "type": "function"
    },
    {
      "inputs": [
        {
          "internalType": "address",
          "name": "from",
          "type": "address"
        },
        {
          "internalType": "address",
          "name": "to",
          "type": "address"
        },
        {
          "internalType": "uint256",
          "name": "tokenId",
          "type": "uint256"
        }
      ],
      "name": "transferFrom",
      "outputs": [],
      "stateMutability": "nonpayable",
      "type": "function"
    },
    {
      "inputs": [
        {
          "internalType": "bytes4",
          "name": "interfaceId",
          "type": "bytes4"
        }
      ],
      "name": "supportsInterface",
      "outputs": [
        {
          "internalType": "bool",
          "name": "",
          "type": "bool"
        }
      ],
      "stateMutability": "view",
      "type": "function"
    },
    {
      "inputs": [
        {
          "internalType": "address[]",
          "name": "participants",
          "type": "address[]"
        },
        {
          "internalType": "uint256",
          "name": "allocation",
          "type": "uint256"
        }
      ],
      "name": "setPresaleParticipants",
      "outputs": [],
      "stateMutability": "nonpayable",
      "type": "function"
    },
    {
      "inputs": [
        {
          "internalType": "string",
          "name": "pHash",
          "type": "string"
        }
      ],
      "name": "setProvenanceHash",
      "outputs": [],
      "stateMutability": "nonpayable",
      "type": "function"
    },
    {
      "inputs": [
        {
          "internalType": "uint8",
          "name": "state",
          "type": "uint8"
        }
      ],
      "name": "toggleSaleState",
      "outputs": [],
      "stateMutability": "nonpayable",
      "type": "function"
    },
    {
      "inputs": [
        {
          "internalType": "uint256",
          "name": "_newPrice",
          "type": "uint256"
        }
      ],
      "name": "changeMintPrice",
      "outputs": [],
      "stateMutability": "nonpayable",
      "type": "function"
    },
    {
      "inputs": [
        {
          "internalType": "string",
          "name": "_newBaseUri",
          "type": "string"
        }
      ],
      "name": "setBaseUri",
      "outputs": [],
      "stateMutability": "nonpayable",
      "type": "function"
    },
    {
      "inputs": [
        {
          "internalType": "uint256",
          "name": "_tokenId",
          "type": "uint256"
        },
        {
          "internalType": "string",
          "name": "_newTokenURI",
          "type": "string"
        }
      ],
      "name": "updateTokenURI",
      "outputs": [],
      "stateMutability": "nonpayable",
      "type": "function"
    },
    {
      "inputs": [
        {
          "internalType": "address",
          "name": "recipient",
          "type": "address"
        },
        {
          "internalType": "uint256",
          "name": "numTokens",
          "type": "uint256"
        }
      ],
      "name": "reserveTokens",
      "outputs": [],
      "stateMutability": "nonpayable",
      "type": "function"
    },
    {
      "inputs": [
        {
          "internalType": "address payable",
          "name": "recipient",
          "type": "address"
        },
        {
          "internalType": "uint256",
          "name": "amount",
          "type": "uint256"
        }
      ],
      "name": "withdrawFunds",
      "outputs": [],
      "stateMutability": "nonpayable",
      "type": "function"
    },
    {
      "inputs": [
        {
          "internalType": "uint256",
          "name": "tokenId",
          "type": "uint256"
        }
      ],
      "name": "tokenURI",
      "outputs": [
        {
          "internalType": "string",
          "name": "",
          "type": "string"
        }
      ],
      "stateMutability": "view",
      "type": "function"
    },
    {
      "inputs": [],
      "name": "getSupplyData",
      "outputs": [
        {
          "internalType": "uint256",
          "name": "_currentToken",
          "type": "uint256"
        },
        {
          "internalType": "uint256",
          "name": "_maxSupply",
          "type": "uint256"
        },
        {
          "internalType": "uint256",
          "name": "_mintPrice",
          "type": "uint256"
        }
      ],
      "stateMutability": "view",
      "type": "function"
    },
    {
      "inputs": [
        {
          "internalType": "uint8",
          "name": "numTokens",
          "type": "uint8"
        }
      ],
      "name": "presaleMint",
      "outputs": [],
      "stateMutability": "payable",
      "type": "function"
    },
    {
      "inputs": [
        {
          "internalType": "uint256",
          "name": "numTokens",
          "type": "uint256"
        }
      ],
      "name": "publicMint",
      "outputs": [],
      "stateMutability": "payable",
      "type": "function"
    }
  ],
  "bytecode": "0x60806040526000600b60006101000a81548160ff021916908360028111156200002d576200002c6200033a565b5b021790555067016345785d8a0000600c553480156200004b57600080fd5b50604051620051c4380380620051c4833981810160405281019062000071919062000506565b828281600090805190602001906200008b9291906200028a565b508060019080519060200190620000a49291906200028a565b505050620000bc6000801b336200010f60201b60201c565b620000ed7e2796186c31becda37e2223d2461a1c5b72608fafbfa68e364397ccd57fb873336200010f60201b60201c565b8060079080519060200190620001059291906200028a565b5050505062000624565b6200012182826200012560201b60201c565b5050565b6200013782826200021760201b60201c565b620002135760016006600084815260200190815260200160002060000160008373ffffffffffffffffffffffffffffffffffffffff1673ffffffffffffffffffffffffffffffffffffffff16815260200190815260200160002060006101000a81548160ff021916908315150217905550620001b86200028260201b60201c565b73ffffffffffffffffffffffffffffffffffffffff168173ffffffffffffffffffffffffffffffffffffffff16837f2f8788117e7eff1d82e926ec794901d17c78024a50270940304540a733656f0d60405160405180910390a45b5050565b60006006600084815260200190815260200160002060000160008373ffffffffffffffffffffffffffffffffffffffff1673ffffffffffffffffffffffffffffffffffffffff16815260200190815260200160002060009054906101000a900460ff16905092915050565b600033905090565b8280546200029890620005ee565b90600052602060002090601f016020900481019282620002bc576000855562000308565b82601f10620002d757805160ff191683800117855562000308565b8280016001018555821562000308579182015b8281111562000307578251825591602001919060010190620002ea565b5b5090506200031791906200031b565b5090565b5b80821115620003365760008160009055506001016200031c565b5090565b7f4e487b7100000000000000000000000000000000000000000000000000000000600052602160045260246000fd5b6000604051905090565b600080fd5b600080fd5b600080fd5b600080fd5b6000601f19601f8301169050919050565b7f4e487b7100000000000000000000000000000000000000000000000000000000600052604160045260246000fd5b620003d28262000387565b810181811067ffffffffffffffff82111715620003f457620003f362000398565b5b80604052505050565b60006200040962000369565b9050620004178282620003c7565b919050565b600067ffffffffffffffff8211156200043a576200043962000398565b5b620004458262000387565b9050602081019050919050565b60005b838110156200047257808201518184015260208101905062000455565b8381111562000482576000848401525b50505050565b60006200049f62000499846200041c565b620003fd565b905082815260208101848484011115620004be57620004bd62000382565b5b620004cb84828562000452565b509392505050565b600082601f830112620004eb57620004ea6200037d565b5b8151620004fd84826020860162000488565b91505092915050565b60008060006060848603121562000522576200052162000373565b5b600084015167ffffffffffffffff81111562000543576200054262000378565b5b6200055186828701620004d3565b935050602084015167ffffffffffffffff81111562000575576200057462000378565b5b6200058386828701620004d3565b925050604084015167ffffffffffffffff811115620005a757620005a662000378565b5b620005b586828701620004d3565b9150509250925092565b7f4e487b7100000000000000000000000000000000000000000000000000000000600052602260045260246000fd5b600060028204905060018216806200060757607f821691505b602082108114156200061e576200061d620005bf565b5b50919050565b614b9080620006346000396000f3fe6080604052600436106102255760003560e01c80636fb2d5b311610123578063a2cdc91a116100ab578063c87b56dd1161006f578063c87b56dd14610808578063d547741f14610845578063e985e9c51461086e578063f43a22dc146108ab578063f617f920146108d657610225565b8063a2cdc91a14610737578063a3fafb5b14610762578063b88d4fde1461078b578063c1075329146107b4578063c6ab67a3146107dd57610225565b806391d14854116100f257806391d148541461065257806395d89b411461068f578063a0bcfc7f146106ba578063a217fddf146106e3578063a22cb4651461070e57610225565b80636fb2d5b31461059657806370a08231146105bf57806378cf19e9146105fc578063797743381461062557610225565b80632db11544116101b1578063427d3f8511610175578063427d3f85146104af57806342842e0e146104da5780636352211e146105035780636817c76c146105405780636ba90c6e1461056b57610225565b80632db11544146103ed5780632f2ff15d1461040957806332cb6b0c1461043257806336568abe1461045d5780633fd173661461048657610225565b8063095ea7b3116101f8578063095ea7b31461030c578063109695231461033557806318e97fd11461035e57806323b872dd14610387578063248a9ca3146103b057610225565b806301ffc9a71461022a57806306fdde0314610267578063081812fc14610292578063083a7baa146102cf575b600080fd5b34801561023657600080fd5b50610251600480360381019061024c9190612ed2565b6108f2565b60405161025e9190612f1a565b60405180910390f35b34801561027357600080fd5b5061027c610904565b6040516102899190612fce565b60405180910390f35b34801561029e57600080fd5b506102b960048036038101906102b49190613026565b610996565b6040516102c69190613094565b60405180910390f35b3480156102db57600080fd5b506102f660048036038101906102f191906130db565b610a1b565b6040516103039190613117565b60405180910390f35b34801561031857600080fd5b50610333600480360381019061032e9190613132565b610a33565b005b34801561034157600080fd5b5061035c600480360381019061035791906132a7565b610b4b565b005b34801561036a57600080fd5b50610385600480360381019061038091906132f0565b610be8565b005b34801561039357600080fd5b506103ae60048036038101906103a9919061334c565b610c7f565b005b3480156103bc57600080fd5b506103d760048036038101906103d291906133d5565b610cdf565b6040516103e49190613411565b60405180910390f35b61040760048036038101906104029190613026565b610cff565b005b34801561041557600080fd5b50610430600480360381019061042b919061342c565b610e60565b005b34801561043e57600080fd5b50610447610e89565b6040516104549190613117565b60405180910390f35b34801561046957600080fd5b50610484600480360381019061047f919061342c565b610e8f565b005b34801561049257600080fd5b506104ad60048036038101906104a89190613026565b610f12565b005b3480156104bb57600080fd5b506104c4610f85565b6040516104d191906134e3565b60405180910390f35b3480156104e657600080fd5b5061050160048036038101906104fc919061334c565b610f98565b005b34801561050f57600080fd5b5061052a60048036038101906105259190613026565b610fb8565b6040516105379190613094565b60405180910390f35b34801561054c57600080fd5b5061055561106a565b6040516105629190613117565b60405180910390f35b34801561057757600080fd5b50610580611070565b60405161058d9190613117565b60405180910390f35b3480156105a257600080fd5b506105bd60048036038101906105b89190613537565b611075565b005b3480156105cb57600080fd5b506105e660048036038101906105e191906130db565b6110e9565b6040516105f39190613117565b60405180910390f35b34801561060857600080fd5b50610623600480360381019061061e9190613132565b6111a1565b005b34801561063157600080fd5b5061063a61124d565b60405161064993929190613564565b60405180910390f35b34801561065e57600080fd5b506106796004803603810190610674919061342c565b61126d565b6040516106869190612f1a565b60405180910390f35b34801561069b57600080fd5b506106a46112d8565b6040516106b19190612fce565b60405180910390f35b3480156106c657600080fd5b506106e160048036038101906106dc91906132a7565b61136a565b005b3480156106ef57600080fd5b506106f86113b6565b6040516107059190613411565b60405180910390f35b34801561071a57600080fd5b50610735600480360381019061073091906135c7565b6113bd565b005b34801561074357600080fd5b5061074c6113d3565b6040516107599190613411565b60405180910390f35b34801561076e57600080fd5b50610789600480360381019061078491906136cf565b6113f6565b005b34801561079757600080fd5b506107b260048036038101906107ad91906137cc565b6114b2565b005b3480156107c057600080fd5b506107db60048036038101906107d6919061388d565b611514565b005b3480156107e957600080fd5b506107f26115e5565b6040516107ff9190612fce565b60405180910390f35b34801561081457600080fd5b5061082f600480360381019061082a9190613026565b611673565b60405161083c9190612fce565b60405180910390f35b34801561085157600080fd5b5061086c6004803603810190610867919061342c565b6117b1565b005b34801561087a57600080fd5b50610895600480360381019061089091906138cd565b6117da565b6040516108a29190612f1a565b60405180910390f35b3480156108b757600080fd5b506108c061186e565b6040516108cd9190613117565b60405180910390f35b6108f060048036038101906108eb9190613537565b611873565b005b60006108fd82611a2c565b9050919050565b6060600080546109139061393c565b80601f016020809104026020016040519081016040528092919081815260200182805461093f9061393c565b801561098c5780601f106109615761010080835404028352916020019161098c565b820191906000526020600020905b81548152906001019060200180831161096f57829003601f168201915b5050505050905090565b60006109a182611aa6565b6109e0576040517f08c379a00000000000000000000000000000000000000000000000000000000081526004016109d7906139e0565b60405180910390fd5b6004600083815260200190815260200160002060009054906101000a900473ffffffffffffffffffffffffffffffffffffffff169050919050565b600e6020528060005260406000206000915090505481565b6000610a3e82610fb8565b90508073ffffffffffffffffffffffffffffffffffffffff168373ffffffffffffffffffffffffffffffffffffffff161415610aaf576040517f08c379a0000000000000000000000000000000000000000000000000000000008152600401610aa690613a72565b60405180910390fd5b8073ffffffffffffffffffffffffffffffffffffffff16610ace611b12565b73ffffffffffffffffffffffffffffffffffffffff161480610afd5750610afc81610af7611b12565b6117da565b5b610b3c576040517f08c379a0000000000000000000000000000000000000000000000000000000008152600401610b3390613b04565b60405180910390fd5b610b468383611b1a565b505050565b7e2796186c31becda37e2223d2461a1c5b72608fafbfa68e364397ccd57fb873610b7c81610b77611b12565b611bd3565b6000600d8054610b8b9061393c565b905014610bcd576040517f08c379a0000000000000000000000000000000000000000000000000000000008152600401610bc490613b70565b60405180910390fd5b81600d9080519060200190610be3929190612dc3565b505050565b7e2796186c31becda37e2223d2461a1c5b72608fafbfa68e364397ccd57fb873610c1981610c14611b12565b611bd3565b81600860008581526020019081526020016000209080519060200190610c40929190612dc3565b507f652c9498726ae446882619d79306dfe2594d5d5a008eaad0a720ee55ebf8e8b88383604051610c72929190613b90565b60405180910390a1505050565b610c90610c8a611b12565b82611c70565b610ccf576040517f08c379a0000000000000000000000000000000000000000000000000000000008152600401610cc690613c32565b60405180910390fd5b610cda838383611d4e565b505050565b600060066000838152602001908152602001600020600101549050919050565b600280811115610d1257610d1161346c565b5b600b60009054906101000a900460ff166002811115610d3457610d3361346c565b5b14610d74576040517f08c379a0000000000000000000000000000000000000000000000000000000008152600401610d6b90613c9e565b60405180910390fd5b6006811115610db8576040517f08c379a0000000000000000000000000000000000000000000000000000000008152600401610daf90613d0a565b60405180910390fd5b80600c54610dc69190613d59565b341015610e08576040517f08c379a0000000000000000000000000000000000000000000000000000000008152600401610dff90613dff565b60405180910390fd5b610e1133611fb5565b15610e51576040517f08c379a0000000000000000000000000000000000000000000000000000000008152600401610e4890613e6b565b60405180910390fd5b610e5d33826002611fd8565b50565b610e6982610cdf565b610e7a81610e75611b12565b611bd3565b610e8483836120b3565b505050565b6103e881565b610e97611b12565b73ffffffffffffffffffffffffffffffffffffffff168173ffffffffffffffffffffffffffffffffffffffff1614610f04576040517f08c379a0000000000000000000000000000000000000000000000000000000008152600401610efb90613efd565b60405180910390fd5b610f0e8282612194565b5050565b7e2796186c31becda37e2223d2461a1c5b72608fafbfa68e364397ccd57fb873610f4381610f3e611b12565b611bd3565b81600c819055507f25b1f9f6b6e61dfca5575239769e4450ed2e49176670837f5d1a82a9a2fc693f82604051610f799190613117565b60405180910390a15050565b600b60009054906101000a900460ff1681565b610fb3838383604051806020016040528060008152506114b2565b505050565b6000806002600084815260200190815260200160002060009054906101000a900473ffffffffffffffffffffffffffffffffffffffff169050600073ffffffffffffffffffffffffffffffffffffffff168173ffffffffffffffffffffffffffffffffffffffff161415611061576040517f08c379a000000000000000000000000000000000000000000000000000000000815260040161105890613f8f565b60405180910390fd5b80915050919050565b600c5481565b606481565b7e2796186c31becda37e2223d2461a1c5b72608fafbfa68e364397ccd57fb8736110a6816110a1611b12565b611bd3565b8160ff1660028111156110bc576110bb61346c565b5b600b60006101000a81548160ff021916908360028111156110e0576110df61346c565b5b02179055505050565b60008073ffffffffffffffffffffffffffffffffffffffff168273ffffffffffffffffffffffffffffffffffffffff16141561115a576040517f08c379a000000000000000000000000000000000000000000000000000000000815260040161115190614021565b60405180910390fd5b600360008373ffffffffffffffffffffffffffffffffffffffff1673ffffffffffffffffffffffffffffffffffffffff168152602001908152602001600020549050919050565b7e2796186c31becda37e2223d2461a1c5b72608fafbfa68e364397ccd57fb8736111d2816111cd611b12565b611bd3565b606482600a546111e29190614041565b1115611223576040517f08c379a000000000000000000000000000000000000000000000000000000000815260040161121a906140e3565b60405180910390fd5b61122f83836001611fd8565b81600a60008282546112419190614041565b92505081905550505050565b600080600061125c6009612276565b92506103e89150600c549050909192565b60006006600084815260200190815260200160002060000160008373ffffffffffffffffffffffffffffffffffffffff1673ffffffffffffffffffffffffffffffffffffffff16815260200190815260200160002060009054906101000a900460ff16905092915050565b6060600180546112e79061393c565b80601f01602080910402602001604051908101604052809291908181526020018280546113139061393c565b80156113605780601f1061133557610100808354040283529160200191611360565b820191906000526020600020905b81548152906001019060200180831161134357829003601f168201915b5050505050905090565b7e2796186c31becda37e2223d2461a1c5b72608fafbfa68e364397ccd57fb87361139b81611396611b12565b611bd3565b81600790805190602001906113b1929190612dc3565b505050565b6000801b81565b6113cf6113c8611b12565b8383612284565b5050565b7e2796186c31becda37e2223d2461a1c5b72608fafbfa68e364397ccd57fb87381565b7e2796186c31becda37e2223d2461a1c5b72608fafbfa68e364397ccd57fb87361142781611422611b12565b611bd3565b60005b83518161ffff1610156114ac5782600e6000868461ffff168151811061145357611452614103565b5b602002602001015173ffffffffffffffffffffffffffffffffffffffff1673ffffffffffffffffffffffffffffffffffffffff1681526020019081526020016000208190555080806114a490614140565b91505061142a565b50505050565b6114c36114bd611b12565b83611c70565b611502576040517f08c379a00000000000000000000000000000000000000000000000000000000081526004016114f990613c32565b60405180910390fd5b61150e848484846123f1565b50505050565b6000801b61152981611524611b12565b611bd3565b600073ffffffffffffffffffffffffffffffffffffffff168373ffffffffffffffffffffffffffffffffffffffff161415611599576040517f08c379a0000000000000000000000000000000000000000000000000000000008152600401611590906141b7565b60405180910390fd5b8273ffffffffffffffffffffffffffffffffffffffff166108fc839081150290604051600060405180830381858888f193505050501580156115df573d6000803e3d6000fd5b50505050565b600d80546115f29061393c565b80601f016020809104026020016040519081016040528092919081815260200182805461161e9061393c565b801561166b5780601f106116405761010080835404028352916020019161166b565b820191906000526020600020905b81548152906001019060200180831161164e57829003601f168201915b505050505081565b606061167e82611aa6565b6116bd576040517f08c379a00000000000000000000000000000000000000000000000000000000081526004016116b490614223565b60405180910390fd5b60006008600084815260200190815260200160002080546116dd9061393c565b80601f01602080910402602001604051908101604052809291908181526020018280546117099061393c565b80156117565780601f1061172b57610100808354040283529160200191611756565b820191906000526020600020905b81548152906001019060200180831161173957829003601f168201915b50505050509050600061176761244d565b90506000825114156117a6578061177d856124df565b60405160200161178e9291906142cb565b604051602081830303815290604052925050506117ac565b81925050505b919050565b6117ba82610cdf565b6117cb816117c6611b12565b611bd3565b6117d58383612194565b505050565b6000600560008473ffffffffffffffffffffffffffffffffffffffff1673ffffffffffffffffffffffffffffffffffffffff16815260200190815260200160002060008373ffffffffffffffffffffffffffffffffffffffff1673ffffffffffffffffffffffffffffffffffffffff16815260200190815260200160002060009054906101000a900460ff16905092915050565b600681565b600160028111156118875761188661346c565b5b600b60009054906101000a900460ff1660028111156118a9576118a861346c565b5b146118e9576040517f08c379a00000000000000000000000000000000000000000000000000000000081526004016118e090614346565b60405180910390fd5b8060ff16600c546118fa9190613d59565b34101561193c576040517f08c379a000000000000000000000000000000000000000000000000000000000815260040161193390613dff565b60405180910390fd5b600e60003373ffffffffffffffffffffffffffffffffffffffff1673ffffffffffffffffffffffffffffffffffffffff168152602001908152602001600020548160ff1611156119c1576040517f08c379a00000000000000000000000000000000000000000000000000000000081526004016119b8906143b2565b60405180910390fd5b8060ff16600e60003373ffffffffffffffffffffffffffffffffffffffff1673ffffffffffffffffffffffffffffffffffffffff1681526020019081526020016000206000828254611a1391906143d2565b92505081905550611a29338260ff166001611fd8565b50565b60007f7965db0b000000000000000000000000000000000000000000000000000000007bffffffffffffffffffffffffffffffffffffffffffffffffffffffff1916827bffffffffffffffffffffffffffffffffffffffffffffffffffffffff19161480611a9f5750611a9e82612640565b5b9050919050565b60008073ffffffffffffffffffffffffffffffffffffffff166002600084815260200190815260200160002060009054906101000a900473ffffffffffffffffffffffffffffffffffffffff1673ffffffffffffffffffffffffffffffffffffffff1614159050919050565b600033905090565b816004600083815260200190815260200160002060006101000a81548173ffffffffffffffffffffffffffffffffffffffff021916908373ffffffffffffffffffffffffffffffffffffffff160217905550808273ffffffffffffffffffffffffffffffffffffffff16611b8d83610fb8565b73ffffffffffffffffffffffffffffffffffffffff167f8c5be1e5ebec7d5bd14f71427d1e84f3dd0314c0f7b2291e5b200ac8c7c3b92560405160405180910390a45050565b611bdd828261126d565b611c6c57611c028173ffffffffffffffffffffffffffffffffffffffff166014612722565b611c108360001c6020612722565b604051602001611c2192919061449e565b6040516020818303038152906040526040517f08c379a0000000000000000000000000000000000000000000000000000000008152600401611c639190612fce565b60405180910390fd5b5050565b6000611c7b82611aa6565b611cba576040517f08c379a0000000000000000000000000000000000000000000000000000000008152600401611cb19061454a565b60405180910390fd5b6000611cc583610fb8565b90508073ffffffffffffffffffffffffffffffffffffffff168473ffffffffffffffffffffffffffffffffffffffff161480611d3457508373ffffffffffffffffffffffffffffffffffffffff16611d1c84610996565b73ffffffffffffffffffffffffffffffffffffffff16145b80611d455750611d4481856117da565b5b91505092915050565b8273ffffffffffffffffffffffffffffffffffffffff16611d6e82610fb8565b73ffffffffffffffffffffffffffffffffffffffff1614611dc4576040517f08c379a0000000000000000000000000000000000000000000000000000000008152600401611dbb906145dc565b60405180910390fd5b600073ffffffffffffffffffffffffffffffffffffffff168273ffffffffffffffffffffffffffffffffffffffff161415611e34576040517f08c379a0000000000000000000000000000000000000000000000000000000008152600401611e2b9061466e565b60405180910390fd5b611e3f83838361295e565b611e4a600082611b1a565b6001600360008573ffffffffffffffffffffffffffffffffffffffff1673ffffffffffffffffffffffffffffffffffffffff1681526020019081526020016000206000828254611e9a91906143d2565b925050819055506001600360008473ffffffffffffffffffffffffffffffffffffffff1673ffffffffffffffffffffffffffffffffffffffff1681526020019081526020016000206000828254611ef19190614041565b92505081905550816002600083815260200190815260200160002060006101000a81548173ffffffffffffffffffffffffffffffffffffffff021916908373ffffffffffffffffffffffffffffffffffffffff160217905550808273ffffffffffffffffffffffffffffffffffffffff168473ffffffffffffffffffffffffffffffffffffffff167fddf252ad1be2c89b69c2b068fc378daa952ba7f163c4a11628f55a4df523b3ef60405160405180910390a4611fb0838383612963565b505050565b6000808273ffffffffffffffffffffffffffffffffffffffff163b119050919050565b6103e882611fe66009612276565b611ff09190614041565b1115612031576040517f08c379a0000000000000000000000000000000000000000000000000000000008152600401612028906146da565b60405180910390fd5b60005b828110156120ad5760006120486009612276565b90506120546009612968565b61205e858261297e565b7f99f38cf3feaad38e0a2e22ef51bdd4faba32b432520a951248d77057596a425a818685604051612091939291906146fa565b60405180910390a15080806120a590614731565b915050612034565b50505050565b6120bd828261126d565b6121905760016006600084815260200190815260200160002060000160008373ffffffffffffffffffffffffffffffffffffffff1673ffffffffffffffffffffffffffffffffffffffff16815260200190815260200160002060006101000a81548160ff021916908315150217905550612135611b12565b73ffffffffffffffffffffffffffffffffffffffff168173ffffffffffffffffffffffffffffffffffffffff16837f2f8788117e7eff1d82e926ec794901d17c78024a50270940304540a733656f0d60405160405180910390a45b5050565b61219e828261126d565b156122725760006006600084815260200190815260200160002060000160008373ffffffffffffffffffffffffffffffffffffffff1673ffffffffffffffffffffffffffffffffffffffff16815260200190815260200160002060006101000a81548160ff021916908315150217905550612217611b12565b73ffffffffffffffffffffffffffffffffffffffff168173ffffffffffffffffffffffffffffffffffffffff16837ff6391f5c32d9c69d2a47ea670b442974b53935d1edc7fd64eb21e047a839171b60405160405180910390a45b5050565b600081600001549050919050565b8173ffffffffffffffffffffffffffffffffffffffff168373ffffffffffffffffffffffffffffffffffffffff1614156122f3576040517f08c379a00000000000000000000000000000000000000000000000000000000081526004016122ea906147c6565b60405180910390fd5b80600560008573ffffffffffffffffffffffffffffffffffffffff1673ffffffffffffffffffffffffffffffffffffffff16815260200190815260200160002060008473ffffffffffffffffffffffffffffffffffffffff1673ffffffffffffffffffffffffffffffffffffffff16815260200190815260200160002060006101000a81548160ff0219169083151502179055508173ffffffffffffffffffffffffffffffffffffffff168373ffffffffffffffffffffffffffffffffffffffff167f17307eab39ab6107e8899845ad3d59bd9653f200f220920489ca2b5937696c31836040516123e49190612f1a565b60405180910390a3505050565b6123fc848484611d4e565b6124088484848461299c565b612447576040517f08c379a000000000000000000000000000000000000000000000000000000000815260040161243e90614858565b60405180910390fd5b50505050565b60606007805461245c9061393c565b80601f01602080910402602001604051908101604052809291908181526020018280546124889061393c565b80156124d55780601f106124aa576101008083540402835291602001916124d5565b820191906000526020600020905b8154815290600101906020018083116124b857829003601f168201915b5050505050905090565b60606000821415612527576040518060400160405280600181526020017f3000000000000000000000000000000000000000000000000000000000000000815250905061263b565b600082905060005b6000821461255957808061254290614731565b915050600a8261255291906148a7565b915061252f565b60008167ffffffffffffffff8111156125755761257461317c565b5b6040519080825280601f01601f1916602001820160405280156125a75781602001600182028036833780820191505090505b5090505b60008514612634576001826125c091906143d2565b9150600a856125cf91906148d8565b60306125db9190614041565b60f81b8183815181106125f1576125f0614103565b5b60200101907effffffffffffffffffffffffffffffffffffffffffffffffffffffffffffff1916908160001a905350600a8561262d91906148a7565b94506125ab565b8093505050505b919050565b60007f80ac58cd000000000000000000000000000000000000000000000000000000007bffffffffffffffffffffffffffffffffffffffffffffffffffffffff1916827bffffffffffffffffffffffffffffffffffffffffffffffffffffffff1916148061270b57507f5b5e139f000000000000000000000000000000000000000000000000000000007bffffffffffffffffffffffffffffffffffffffffffffffffffffffff1916827bffffffffffffffffffffffffffffffffffffffffffffffffffffffff1916145b8061271b575061271a82612b24565b5b9050919050565b6060600060028360026127359190613d59565b61273f9190614041565b67ffffffffffffffff8111156127585761275761317c565b5b6040519080825280601f01601f19166020018201604052801561278a5781602001600182028036833780820191505090505b5090507f3000000000000000000000000000000000000000000000000000000000000000816000815181106127c2576127c1614103565b5b60200101907effffffffffffffffffffffffffffffffffffffffffffffffffffffffffffff1916908160001a9053507f78000000000000000000000000000000000000000000000000000000000000008160018151811061282657612825614103565b5b60200101907effffffffffffffffffffffffffffffffffffffffffffffffffffffffffffff1916908160001a905350600060018460026128669190613d59565b6128709190614041565b90505b6001811115612910577f3031323334353637383961626364656600000000000000000000000000000000600f8616601081106128b2576128b1614103565b5b1a60f81b8282815181106128c9576128c8614103565b5b60200101907effffffffffffffffffffffffffffffffffffffffffffffffffffffffffffff1916908160001a905350600485901c94508061290990614909565b9050612873565b5060008414612954576040517f08c379a000000000000000000000000000000000000000000000000000000000815260040161294b9061497f565b60405180910390fd5b8091505092915050565b505050565b505050565b6001816000016000828254019250508190555050565b612998828260405180602001604052806000815250612b8e565b5050565b60006129bd8473ffffffffffffffffffffffffffffffffffffffff16611fb5565b15612b17578373ffffffffffffffffffffffffffffffffffffffff1663150b7a026129e6611b12565b8786866040518563ffffffff1660e01b8152600401612a0894939291906149f4565b6020604051808303816000875af1925050508015612a4457506040513d601f19601f82011682018060405250810190612a419190614a55565b60015b612ac7573d8060008114612a74576040519150601f19603f3d011682016040523d82523d6000602084013e612a79565b606091505b50600081511415612abf576040517f08c379a0000000000000000000000000000000000000000000000000000000008152600401612ab690614858565b60405180910390fd5b805181602001fd5b63150b7a0260e01b7bffffffffffffffffffffffffffffffffffffffffffffffffffffffff1916817bffffffffffffffffffffffffffffffffffffffffffffffffffffffff191614915050612b1c565b600190505b949350505050565b60007f01ffc9a7000000000000000000000000000000000000000000000000000000007bffffffffffffffffffffffffffffffffffffffffffffffffffffffff1916827bffffffffffffffffffffffffffffffffffffffffffffffffffffffff1916149050919050565b612b988383612be9565b612ba5600084848461299c565b612be4576040517f08c379a0000000000000000000000000000000000000000000000000000000008152600401612bdb90614858565b60405180910390fd5b505050565b600073ffffffffffffffffffffffffffffffffffffffff168273ffffffffffffffffffffffffffffffffffffffff161415612c59576040517f08c379a0000000000000000000000000000000000000000000000000000000008152600401612c5090614ace565b60405180910390fd5b612c6281611aa6565b15612ca2576040517f08c379a0000000000000000000000000000000000000000000000000000000008152600401612c9990614b3a565b60405180910390fd5b612cae6000838361295e565b6001600360008473ffffffffffffffffffffffffffffffffffffffff1673ffffffffffffffffffffffffffffffffffffffff1681526020019081526020016000206000828254612cfe9190614041565b92505081905550816002600083815260200190815260200160002060006101000a81548173ffffffffffffffffffffffffffffffffffffffff021916908373ffffffffffffffffffffffffffffffffffffffff160217905550808273ffffffffffffffffffffffffffffffffffffffff16600073ffffffffffffffffffffffffffffffffffffffff167fddf252ad1be2c89b69c2b068fc378daa952ba7f163c4a11628f55a4df523b3ef60405160405180910390a4612dbf60008383612963565b5050565b828054612dcf9061393c565b90600052602060002090601f016020900481019282612df15760008555612e38565b82601f10612e0a57805160ff1916838001178555612e38565b82800160010185558215612e38579182015b82811115612e37578251825591602001919060010190612e1c565b5b509050612e459190612e49565b5090565b5b80821115612e62576000816000905550600101612e4a565b5090565b6000604051905090565b600080fd5b600080fd5b60007fffffffff0000000000000000000000000000000000000000000000000000000082169050919050565b612eaf81612e7a565b8114612eba57600080fd5b50565b600081359050612ecc81612ea6565b92915050565b600060208284031215612ee857612ee7612e70565b5b6000612ef684828501612ebd565b91505092915050565b60008115159050919050565b612f1481612eff565b82525050565b6000602082019050612f2f6000830184612f0b565b92915050565b600081519050919050565b600082825260208201905092915050565b60005b83811015612f6f578082015181840152602081019050612f54565b83811115612f7e576000848401525b50505050565b6000601f19601f8301169050919050565b6000612fa082612f35565b612faa8185612f40565b9350612fba818560208601612f51565b612fc381612f84565b840191505092915050565b60006020820190508181036000830152612fe88184612f95565b905092915050565b6000819050919050565b61300381612ff0565b811461300e57600080fd5b50565b60008135905061302081612ffa565b92915050565b60006020828403121561303c5761303b612e70565b5b600061304a84828501613011565b91505092915050565b600073ffffffffffffffffffffffffffffffffffffffff82169050919050565b600061307e82613053565b9050919050565b61308e81613073565b82525050565b60006020820190506130a96000830184613085565b92915050565b6130b881613073565b81146130c357600080fd5b50565b6000813590506130d5816130af565b92915050565b6000602082840312156130f1576130f0612e70565b5b60006130ff848285016130c6565b91505092915050565b61311181612ff0565b82525050565b600060208201905061312c6000830184613108565b92915050565b6000806040838503121561314957613148612e70565b5b6000613157858286016130c6565b925050602061316885828601613011565b9150509250929050565b600080fd5b600080fd5b7f4e487b7100000000000000000000000000000000000000000000000000000000600052604160045260246000fd5b6131b482612f84565b810181811067ffffffffffffffff821117156131d3576131d261317c565b5b80604052505050565b60006131e6612e66565b90506131f282826131ab565b919050565b600067ffffffffffffffff8211156132125761321161317c565b5b61321b82612f84565b9050602081019050919050565b82818337600083830152505050565b600061324a613245846131f7565b6131dc565b90508281526020810184848401111561326657613265613177565b5b613271848285613228565b509392505050565b600082601f83011261328e5761328d613172565b5b813561329e848260208601613237565b91505092915050565b6000602082840312156132bd576132bc612e70565b5b600082013567ffffffffffffffff8111156132db576132da612e75565b5b6132e784828501613279565b91505092915050565b6000806040838503121561330757613306612e70565b5b600061331585828601613011565b925050602083013567ffffffffffffffff81111561333657613335612e75565b5b61334285828601613279565b9150509250929050565b60008060006060848603121561336557613364612e70565b5b6000613373868287016130c6565b9350506020613384868287016130c6565b925050604061339586828701613011565b9150509250925092565b6000819050919050565b6133b28161339f565b81146133bd57600080fd5b50565b6000813590506133cf816133a9565b92915050565b6000602082840312156133eb576133ea612e70565b5b60006133f9848285016133c0565b91505092915050565b61340b8161339f565b82525050565b60006020820190506134266000830184613402565b92915050565b6000806040838503121561344357613442612e70565b5b6000613451858286016133c0565b9250506020613462858286016130c6565b9150509250929050565b7f4e487b7100000000000000000000000000000000000000000000000000000000600052602160045260246000fd5b600381106134ac576134ab61346c565b5b50565b60008190506134bd8261349b565b919050565b60006134cd826134af565b9050919050565b6134dd816134c2565b82525050565b60006020820190506134f860008301846134d4565b92915050565b600060ff82169050919050565b613514816134fe565b811461351f57600080fd5b50565b6000813590506135318161350b565b92915050565b60006020828403121561354d5761354c612e70565b5b600061355b84828501613522565b91505092915050565b60006060820190506135796000830186613108565b6135866020830185613108565b6135936040830184613108565b949350505050565b6135a481612eff565b81146135af57600080fd5b50565b6000813590506135c18161359b565b92915050565b600080604083850312156135de576135dd612e70565b5b60006135ec858286016130c6565b92505060206135fd858286016135b2565b9150509250929050565b600067ffffffffffffffff8211156136225761362161317c565b5b602082029050602081019050919050565b600080fd5b600061364b61364684613607565b6131dc565b9050808382526020820190506020840283018581111561366e5761366d613633565b5b835b81811015613697578061368388826130c6565b845260208401935050602081019050613670565b5050509392505050565b600082601f8301126136b6576136b5613172565b5b81356136c6848260208601613638565b91505092915050565b600080604083850312156136e6576136e5612e70565b5b600083013567ffffffffffffffff81111561370457613703612e75565b5b613710858286016136a1565b925050602061372185828601613011565b9150509250929050565b600067ffffffffffffffff8211156137465761374561317c565b5b61374f82612f84565b9050602081019050919050565b600061376f61376a8461372b565b6131dc565b90508281526020810184848401111561378b5761378a613177565b5b613796848285613228565b509392505050565b600082601f8301126137b3576137b2613172565b5b81356137c384826020860161375c565b91505092915050565b600080600080608085870312156137e6576137e5612e70565b5b60006137f4878288016130c6565b9450506020613805878288016130c6565b935050604061381687828801613011565b925050606085013567ffffffffffffffff81111561383757613836612e75565b5b6138438782880161379e565b91505092959194509250565b600061385a82613053565b9050919050565b61386a8161384f565b811461387557600080fd5b50565b60008135905061388781613861565b92915050565b600080604083850312156138a4576138a3612e70565b5b60006138b285828601613878565b92505060206138c385828601613011565b9150509250929050565b600080604083850312156138e4576138e3612e70565b5b60006138f2858286016130c6565b9250506020613903858286016130c6565b9150509250929050565b7f4e487b7100000000000000000000000000000000000000000000000000000000600052602260045260246000fd5b6000600282049050600182168061395457607f821691505b602082108114156139685761396761390d565b5b50919050565b7f4552433732313a20617070726f76656420717565727920666f72206e6f6e657860008201527f697374656e7420746f6b656e0000000000000000000000000000000000000000602082015250565b60006139ca602c83612f40565b91506139d58261396e565b604082019050919050565b600060208201905081810360008301526139f9816139bd565b9050919050565b7f4552433732313a20617070726f76616c20746f2063757272656e74206f776e6560008201527f7200000000000000000000000000000000000000000000000000000000000000602082015250565b6000613a5c602183612f40565b9150613a6782613a00565b604082019050919050565b60006020820190508181036000830152613a8b81613a4f565b9050919050565b7f4552433732313a20617070726f76652063616c6c6572206973206e6f74206f7760008201527f6e6572206e6f7220617070726f76656420666f7220616c6c0000000000000000602082015250565b6000613aee603883612f40565b9150613af982613a92565b604082019050919050565b60006020820190508181036000830152613b1d81613ae1565b9050919050565b7f50726f76656e616e6365206861736820616c7265616479207365740000000000600082015250565b6000613b5a601b83612f40565b9150613b6582613b24565b602082019050919050565b60006020820190508181036000830152613b8981613b4d565b9050919050565b6000604082019050613ba56000830185613108565b8181036020830152613bb78184612f95565b90509392505050565b7f4552433732313a207472616e736665722063616c6c6572206973206e6f74206f60008201527f776e6572206e6f7220617070726f766564000000000000000000000000000000602082015250565b6000613c1c603183612f40565b9150613c2782613bc0565b604082019050919050565b60006020820190508181036000830152613c4b81613c0f565b9050919050565b7f5075626c69632073616c65206973206e6f742061637469766500000000000000600082015250565b6000613c88601983612f40565b9150613c9382613c52565b602082019050919050565b60006020820190508181036000830152613cb781613c7b565b9050919050565b7f4d617820362070657220747820616c6c6f776564000000000000000000000000600082015250565b6000613cf4601483612f40565b9150613cff82613cbe565b602082019050919050565b60006020820190508181036000830152613d2381613ce7565b9050919050565b7f4e487b7100000000000000000000000000000000000000000000000000000000600052601160045260246000fd5b6000613d6482612ff0565b9150613d6f83612ff0565b9250817fffffffffffffffffffffffffffffffffffffffffffffffffffffffffffffffff0483118215151615613da857613da7613d2a565b5b828202905092915050565b7f496e73756666696369656e742065746865722073656e74000000000000000000600082015250565b6000613de9601783612f40565b9150613df482613db3565b602082019050919050565b60006020820190508181036000830152613e1881613ddc565b9050919050565b7f436f6e74726163747320666f7262696464656e2066726f6d20627579696e6700600082015250565b6000613e55601f83612f40565b9150613e6082613e1f565b602082019050919050565b60006020820190508181036000830152613e8481613e48565b9050919050565b7f416363657373436f6e74726f6c3a2063616e206f6e6c792072656e6f756e636560008201527f20726f6c657320666f722073656c660000000000000000000000000000000000602082015250565b6000613ee7602f83612f40565b9150613ef282613e8b565b604082019050919050565b60006020820190508181036000830152613f1681613eda565b9050919050565b7f4552433732313a206f776e657220717565727920666f72206e6f6e657869737460008201527f656e7420746f6b656e0000000000000000000000000000000000000000000000602082015250565b6000613f79602983612f40565b9150613f8482613f1d565b604082019050919050565b60006020820190508181036000830152613fa881613f6c565b9050919050565b7f4552433732313a2062616c616e636520717565727920666f7220746865207a6560008201527f726f206164647265737300000000000000000000000000000000000000000000602082015250565b600061400b602a83612f40565b915061401682613faf565b604082019050919050565b6000602082019050818103600083015261403a81613ffe565b9050919050565b600061404c82612ff0565b915061405783612ff0565b9250827fffffffffffffffffffffffffffffffffffffffffffffffffffffffffffffffff0382111561408c5761408b613d2a565b5b828201905092915050565b7f526571756573742077696c6c206578636565642072657365727665206d617800600082015250565b60006140cd601f83612f40565b91506140d882614097565b602082019050919050565b600060208201905081810360008301526140fc816140c0565b9050919050565b7f4e487b7100000000000000000000000000000000000000000000000000000000600052603260045260246000fd5b600061ffff82169050919050565b600061414b82614132565b915061ffff8214156141605761415f613d2a565b5b600182019050919050565b7f496e76616c696420726563697069656e74206164647265737300000000000000600082015250565b60006141a1601983612f40565b91506141ac8261416b565b602082019050919050565b600060208201905081810360008301526141d081614194565b9050919050565b7f55524920717565727920666f72206e6f6e6578697374656e7420746f6b656e00600082015250565b600061420d601f83612f40565b9150614218826141d7565b602082019050919050565b6000602082019050818103600083015261423c81614200565b9050919050565b600081905092915050565b600061425982612f35565b6142638185614243565b9350614273818560208601612f51565b80840191505092915050565b7f2e6a736f6e000000000000000000000000000000000000000000000000000000600082015250565b60006142b5600583614243565b91506142c08261427f565b600582019050919050565b60006142d7828561424e565b91506142e3828461424e565b91506142ee826142a8565b91508190509392505050565b7f5072652d53616c652073616c65206973206e6f74206163746976650000000000600082015250565b6000614330601b83612f40565b915061433b826142fa565b602082019050919050565b6000602082019050818103600083015261435f81614323565b9050919050565b7f496e73756666696369656e74207072652d73616c6520616c6c6f636174696f6e600082015250565b600061439c602083612f40565b91506143a782614366565b602082019050919050565b600060208201905081810360008301526143cb8161438f565b9050919050565b60006143dd82612ff0565b91506143e883612ff0565b9250828210156143fb576143fa613d2a565b5b828203905092915050565b7f416363657373436f6e74726f6c3a206163636f756e7420000000000000000000600082015250565b600061443c601783614243565b915061444782614406565b601782019050919050565b7f206973206d697373696e6720726f6c6520000000000000000000000000000000600082015250565b6000614488601183614243565b915061449382614452565b601182019050919050565b60006144a98261442f565b91506144b5828561424e565b91506144c08261447b565b91506144cc828461424e565b91508190509392505050565b7f4552433732313a206f70657261746f7220717565727920666f72206e6f6e657860008201527f697374656e7420746f6b656e0000000000000000000000000000000000000000602082015250565b6000614534602c83612f40565b915061453f826144d8565b604082019050919050565b6000602082019050818103600083015261456381614527565b9050919050565b7f4552433732313a207472616e736665722066726f6d20696e636f72726563742060008201527f6f776e6572000000000000000000000000000000000000000000000000000000602082015250565b60006145c6602583612f40565b91506145d18261456a565b604082019050919050565b600060208201905081810360008301526145f5816145b9565b9050919050565b7f4552433732313a207472616e7366657220746f20746865207a65726f2061646460008201527f7265737300000000000000000000000000000000000000000000000000000000602082015250565b6000614658602483612f40565b9150614663826145fc565b604082019050919050565b600060208201905081810360008301526146878161464b565b9050919050565b7f507572636861736520776f756c6420657863656564206d617820737570706c79600082015250565b60006146c4602083612f40565b91506146cf8261468e565b602082019050919050565b600060208201905081810360008301526146f3816146b7565b9050919050565b600060608201905061470f6000830186613108565b61471c6020830185613085565b61472960408301846134d4565b949350505050565b600061473c82612ff0565b91507fffffffffffffffffffffffffffffffffffffffffffffffffffffffffffffffff82141561476f5761476e613d2a565b5b600182019050919050565b7f4552433732313a20617070726f766520746f2063616c6c657200000000000000600082015250565b60006147b0601983612f40565b91506147bb8261477a565b602082019050919050565b600060208201905081810360008301526147df816147a3565b9050919050565b7f4552433732313a207472616e7366657220746f206e6f6e20455243373231526560008201527f63656976657220696d706c656d656e7465720000000000000000000000000000602082015250565b6000614842603283612f40565b915061484d826147e6565b604082019050919050565b6000602082019050818103600083015261487181614835565b9050919050565b7f4e487b7100000000000000000000000000000000000000000000000000000000600052601260045260246000fd5b60006148b282612ff0565b91506148bd83612ff0565b9250826148cd576148cc614878565b5b828204905092915050565b60006148e382612ff0565b91506148ee83612ff0565b9250826148fe576148fd614878565b5b828206905092915050565b600061491482612ff0565b9150600082141561492857614927613d2a565b5b600182039050919050565b7f537472696e67733a20686578206c656e67746820696e73756666696369656e74600082015250565b6000614969602083612f40565b915061497482614933565b602082019050919050565b600060208201905081810360008301526149988161495c565b9050919050565b600081519050919050565b600082825260208201905092915050565b60006149c68261499f565b6149d081856149aa565b93506149e0818560208601612f51565b6149e981612f84565b840191505092915050565b6000608082019050614a096000830187613085565b614a166020830186613085565b614a236040830185613108565b8181036060830152614a3581846149bb565b905095945050505050565b600081519050614a4f81612ea6565b92915050565b600060208284031215614a6b57614a6a612e70565b5b6000614a7984828501614a40565b91505092915050565b7f4552433732313a206d696e7420746f20746865207a65726f2061646472657373600082015250565b6000614ab8602083612f40565b9150614ac382614a82565b602082019050919050565b60006020820190508181036000830152614ae781614aab565b9050919050565b7f4552433732313a20746f6b656e20616c7265616479206d696e74656400000000600082015250565b6000614b24601c83612f40565b9150614b2f82614aee565b602082019050919050565b60006020820190508181036000830152614b5381614b17565b905091905056fea2646970667358221220ef0fc488222eea00e910c7b5d1d6ab3933c836227a3487e2c59965a2d57ed4ed64736f6c634300080b0033",
  "immutableReferences": {},
  "source": "//SPDX-License-Identifier: MIT\n\npragma solidity 0.8.11;\npragma abicoder v2;\n\nimport \"@openzeppelin/contracts/token/ERC721/ERC721.sol\";\nimport \"@openzeppelin/contracts/access/AccessControl.sol\";\nimport \"@openzeppelin/contracts/utils/Counters.sol\";\nimport \"@openzeppelin/contracts/utils/Strings.sol\";\n\ncontract MultiStageERC721 is ERC721, AccessControl\n{\n    using Counters for Counters.Counter;\n    using Strings for uint256;\n\n    // ====================================================\n    // ROLES\n    // ====================================================\n    bytes32 public constant PROJECT_ADMINS_ROLE = keccak256(\"PROJECT_ADMINS_ROLE\");\n\n    // ====================================================\n    // EVENTS\n    // ====================================================\n    event TokenUriUpdated(uint256 tokenId, string uri);\n    event TokenMinted(uint256 tokenIndex, address minter, TokenSaleState _tokenSaleState);\n    event MintPriceChanged(uint256 newPrice);\n\n    // ====================================================\n    // ENUMS & STRUCTS\n    // ====================================================\n    enum TokenSaleState { PAUSED, PRE_SALE, PUBLIC_SALE }\n\n    // ====================================================\n    // STATE\n    // ====================================================\n    // supply/reservation constants\n    uint public constant MAX_PER_TX = 6;\n    uint public constant MAX_RESERVED = 100;\n    uint public constant MAX_SUPPLY = 1000;\n\n    // metadata\n    string private _baseURIExtended;\n    mapping (uint256 => string) private _tokenURIs;\n\n    // general vars, counter, etc\n    Counters.Counter private _tokenIdCounter;\n    uint private _reservedTokensCounter;\n\n    TokenSaleState public tokenSaleState = TokenSaleState.PAUSED;\n    uint256 public mintPrice = 0.1 ether;\n    string public provenanceHash;\n    mapping(address => uint) public presaleParticipants;\n    \n    // ====================================================\n    // CONSTRUCTOR\n    // ====================================================\n    constructor(\n        string memory _name,\n        string memory _symbol,\n        string memory _baseUri\n    )\n        ERC721(_name, _symbol)\n    {\n        _setupRole(DEFAULT_ADMIN_ROLE, msg.sender);\n        _setupRole(PROJECT_ADMINS_ROLE, msg.sender);\n\n        _baseURIExtended = _baseUri;\n    }\n\n    // ====================================================\n    // OVERRIDES\n    // ====================================================\n    function supportsInterface(bytes4 interfaceId)\n        public\n        view\n        override(ERC721, AccessControl)\n        returns (bool)\n    {\n        return super.supportsInterface(interfaceId);\n    }\n\n    // ====================================================\n    // ADMIN\n    // ====================================================\n    function setPresaleParticipants(address[] memory participants, uint allocation)\n        public\n        onlyRole(PROJECT_ADMINS_ROLE)\n    {\n        for (uint16 i = 0; i < participants.length; i++) {\n            presaleParticipants[participants[i]] = allocation;\n        }\n    }\n\n    function setProvenanceHash(string memory pHash)\n        public\n        onlyRole(PROJECT_ADMINS_ROLE)\n    {\n        // only allow provenance to be set once\n        require(bytes(provenanceHash).length == 0, \"Provenance hash already set\");\n\n        provenanceHash = pHash;\n    }\n\n    function toggleSaleState(uint8 state)\n        public\n        onlyRole(PROJECT_ADMINS_ROLE)\n    {\n        tokenSaleState = TokenSaleState(state);\n    }\n\n    function changeMintPrice(uint256 _newPrice)\n        public\n        onlyRole(PROJECT_ADMINS_ROLE)\n    {\n        mintPrice = _newPrice;\n        emit MintPriceChanged(_newPrice);\n    }\n\n    function setBaseUri(string memory _newBaseUri)\n        public\n        onlyRole(PROJECT_ADMINS_ROLE)\n    {\n        _baseURIExtended = _newBaseUri;\n    }\n\n    function updateTokenURI(uint256 _tokenId, string memory _newTokenURI)\n        public\n        onlyRole(PROJECT_ADMINS_ROLE)\n    {\n        _tokenURIs[_tokenId] = _newTokenURI;\n        emit TokenUriUpdated(_tokenId, _newTokenURI);\n    }\n\n    function reserveTokens(address recipient, uint numTokens)\n        public\n        onlyRole(PROJECT_ADMINS_ROLE)\n    {\n        require(_reservedTokensCounter + numTokens <= MAX_RESERVED, \"Request will exceed reserve max\");\n\n        internalMint(recipient, numTokens, TokenSaleState.PRE_SALE);\n        _reservedTokensCounter += numTokens;\n    }\n\n    function withdrawFunds(address payable recipient, uint256 amount)\n        public\n        onlyRole(DEFAULT_ADMIN_ROLE)\n    {\n        require(recipient != address(0), \"Invalid recipient address\");\n        recipient.transfer(amount);\n    }\n    \n    // ====================================================\n    // INTERNAL UTILS\n    // ====================================================\n    function _baseURI()\n        internal\n        view\n        virtual\n        override\n        returns (string memory)\n    {\n        return _baseURIExtended;\n    }\n\n    function internalMint(address recipient, uint numTokens, TokenSaleState _tokenSaleState)\n        internal\n    {\n        require(_tokenIdCounter.current() + numTokens <= MAX_SUPPLY, \"Purchase would exceed max supply\");\n\n        for (uint i = 0; i < numTokens; i++) {\n            uint256 tokenId = _tokenIdCounter.current();\n            _tokenIdCounter.increment();\n            _safeMint(recipient, tokenId);\n\n            emit TokenMinted(tokenId, recipient, _tokenSaleState);\n        }\n    }\n\n    // ====================================================\n    // PUBLIC API\n    // ====================================================\n    function tokenURI(uint256 tokenId)\n        public\n        view\n        virtual\n        override\n        returns (string memory)\n    {\n        require(_exists(tokenId), \"URI query for nonexistent token\");\n\n        string memory _tokenURI = _tokenURIs[tokenId];\n        string memory base = _baseURI();\n\n        // if a custom tokenURI has not been set, return base + tokenId.json\n        if(bytes(_tokenURI).length == 0) {\n            return string(abi.encodePacked(base, tokenId.toString(), \".json\"));\n        }\n\n        // a custom tokenURI has been set - likely after metadata IPFS migration\n        return _tokenURI;\n    }\n\n    function getSupplyData()\n        public\n        view\n        returns(\n            uint256 _currentToken,\n            uint256 _maxSupply,\n            uint256 _mintPrice)\n    {\n        _currentToken = _tokenIdCounter.current();\n        _maxSupply = MAX_SUPPLY;\n        _mintPrice = mintPrice;\n    }\n\n    function presaleMint(uint8 numTokens)\n        public\n        payable\n    {\n        // standard checks\n        require(tokenSaleState == TokenSaleState.PRE_SALE, \"Pre-Sale sale is not active\");\n        require(msg.value >= mintPrice * numTokens, \"Insufficient ether sent\");\n\n        // check private mint allocation\n        require(numTokens <= presaleParticipants[msg.sender], \"Insufficient pre-sale allocation\");\n\n        // decrement pre-sale allocation\n        presaleParticipants[msg.sender] -= numTokens;\n\n        internalMint(msg.sender, numTokens, TokenSaleState.PRE_SALE);\n    }\n\n    function publicMint(uint numTokens)\n        public\n        payable\n    {\n        // standard checks\n        require(tokenSaleState == TokenSaleState.PUBLIC_SALE, \"Public sale is not active\");\n        require(numTokens <= MAX_PER_TX,\"Max 6 per tx allowed\");\n        require(msg.value >= mintPrice * numTokens, \"Insufficient ether sent\");\n        require(!Address.isContract(msg.sender), \"Contracts forbidden from buying\");\n\n        internalMint(msg.sender, numTokens, TokenSaleState.PUBLIC_SALE);\n    }\n}\n",
  "sourcePath": "/Users/yurivisser/Dev/open-solidity-contracts/contracts/MultiStageERC721.sol",
  "compiler": {
    "name": "solc",
    "version": "0.8.11+commit.d7f03943.Emscripten.clang"
  },
  "schemaVersion": "3.4.2",
  "updatedAt": "2022-03-26T14:46:54.846Z",
  "devdoc": {
    "kind": "dev",
    "methods": {
      "approve(address,uint256)": {
        "details": "See {IERC721-approve}."
      },
      "balanceOf(address)": {
        "details": "See {IERC721-balanceOf}."
      },
      "getApproved(uint256)": {
        "details": "See {IERC721-getApproved}."
      },
      "getRoleAdmin(bytes32)": {
        "details": "Returns the admin role that controls `role`. See {grantRole} and {revokeRole}. To change a role's admin, use {_setRoleAdmin}."
      },
      "grantRole(bytes32,address)": {
        "details": "Grants `role` to `account`. If `account` had not been already granted `role`, emits a {RoleGranted} event. Requirements: - the caller must have ``role``'s admin role."
      },
      "hasRole(bytes32,address)": {
        "details": "Returns `true` if `account` has been granted `role`."
      },
      "isApprovedForAll(address,address)": {
        "details": "See {IERC721-isApprovedForAll}."
      },
      "name()": {
        "details": "See {IERC721Metadata-name}."
      },
      "ownerOf(uint256)": {
        "details": "See {IERC721-ownerOf}."
      },
      "renounceRole(bytes32,address)": {
        "details": "Revokes `role` from the calling account. Roles are often managed via {grantRole} and {revokeRole}: this function's purpose is to provide a mechanism for accounts to lose their privileges if they are compromised (such as when a trusted device is misplaced). If the calling account had been revoked `role`, emits a {RoleRevoked} event. Requirements: - the caller must be `account`."
      },
      "revokeRole(bytes32,address)": {
        "details": "Revokes `role` from `account`. If `account` had been granted `role`, emits a {RoleRevoked} event. Requirements: - the caller must have ``role``'s admin role."
      },
      "safeTransferFrom(address,address,uint256)": {
        "details": "See {IERC721-safeTransferFrom}."
      },
      "safeTransferFrom(address,address,uint256,bytes)": {
        "details": "See {IERC721-safeTransferFrom}."
      },
      "setApprovalForAll(address,bool)": {
        "details": "See {IERC721-setApprovalForAll}."
      },
      "symbol()": {
        "details": "See {IERC721Metadata-symbol}."
      },
      "tokenURI(uint256)": {
        "details": "See {IERC721Metadata-tokenURI}."
      },
      "transferFrom(address,address,uint256)": {
        "details": "See {IERC721-transferFrom}."
      }
    },
    "version": 1
  },
  "userdoc": {
    "kind": "user",
    "methods": {},
    "version": 1
  }
}