{
  "contractName": "MultiEnglishAuction",
  "abi": [
    {
      "inputs": [],
      "stateMutability": "nonpayable",
      "type": "constructor"
    },
    {
      "anonymous": false,
      "inputs": [
        {
          "indexed": false,
          "internalType": "uint256",
          "name": "auctionId",
          "type": "uint256"
        },
        {
          "indexed": false,
          "internalType": "address",
          "name": "addr",
          "type": "address"
        },
        {
          "indexed": false,
          "internalType": "uint256",
          "name": "value",
          "type": "uint256"
        }
      ],
      "name": "AuctionEnded",
      "type": "event"
    },
    {
      "anonymous": false,
      "inputs": [
        {
          "indexed": false,
          "internalType": "uint256",
          "name": "auctionId",
          "type": "uint256"
        }
      ],
      "name": "AuctionStarted",
      "type": "event"
    },
    {
      "anonymous": false,
      "inputs": [
        {
          "indexed": false,
          "internalType": "uint256",
          "name": "auctionId",
          "type": "uint256"
        },
        {
          "indexed": false,
          "internalType": "address",
          "name": "addr",
          "type": "address"
        },
        {
          "indexed": false,
          "internalType": "uint256",
          "name": "value",
          "type": "uint256"
        }
      ],
      "name": "BidReceived",
      "type": "event"
    },
    {
      "anonymous": false,
      "inputs": [
        {
          "indexed": false,
          "internalType": "uint256",
          "name": "auctionId",
          "type": "uint256"
        },
        {
          "indexed": false,
          "internalType": "address",
          "name": "addr",
          "type": "address"
        },
        {
          "indexed": false,
          "internalType": "uint256",
          "name": "bal",
          "type": "uint256"
        }
      ],
      "name": "PushWithdraw",
      "type": "event"
    },
    {
      "anonymous": false,
      "inputs": [
        {
          "indexed": true,
          "internalType": "bytes32",
          "name": "role",
          "type": "bytes32"
        },
        {
          "indexed": true,
          "internalType": "bytes32",
          "name": "previousAdminRole",
          "type": "bytes32"
        },
        {
          "indexed": true,
          "internalType": "bytes32",
          "name": "newAdminRole",
          "type": "bytes32"
        }
      ],
      "name": "RoleAdminChanged",
      "type": "event"
    },
    {
      "anonymous": false,
      "inputs": [
        {
          "indexed": true,
          "internalType": "bytes32",
          "name": "role",
          "type": "bytes32"
        },
        {
          "indexed": true,
          "internalType": "address",
          "name": "account",
          "type": "address"
        },
        {
          "indexed": true,
          "internalType": "address",
          "name": "sender",
          "type": "address"
        }
      ],
      "name": "RoleGranted",
      "type": "event"
    },
    {
      "anonymous": false,
      "inputs": [
        {
          "indexed": true,
          "internalType": "bytes32",
          "name": "role",
          "type": "bytes32"
        },
        {
          "indexed": true,
          "internalType": "address",
          "name": "account",
          "type": "address"
        },
        {
          "indexed": true,
          "internalType": "address",
          "name": "sender",
          "type": "address"
        }
      ],
      "name": "RoleRevoked",
      "type": "event"
    },
    {
      "anonymous": false,
      "inputs": [
        {
          "indexed": false,
          "internalType": "uint256",
          "name": "auctionId",
          "type": "uint256"
        },
        {
          "indexed": false,
          "internalType": "address",
          "name": "addr",
          "type": "address"
        },
        {
          "indexed": false,
          "internalType": "uint256",
          "name": "value",
          "type": "uint256"
        }
      ],
      "name": "Withdraw",
      "type": "event"
    },
    {
      "inputs": [],
      "name": "DEFAULT_ADMIN_ROLE",
      "outputs": [
        {
          "internalType": "bytes32",
          "name": "",
          "type": "bytes32"
        }
      ],
      "stateMutability": "view",
      "type": "function"
    },
    {
      "inputs": [
        {
          "internalType": "uint256",
          "name": "",
          "type": "uint256"
        }
      ],
      "name": "auctions",
      "outputs": [
        {
          "internalType": "address",
          "name": "nftContract",
          "type": "address"
        },
        {
          "internalType": "address payable",
          "name": "seller",
          "type": "address"
        },
        {
          "internalType": "address payable",
          "name": "highestBidder",
          "type": "address"
        },
        {
          "internalType": "uint256",
          "name": "tokenId",
          "type": "uint256"
        },
        {
          "internalType": "uint256",
          "name": "startingBid",
          "type": "uint256"
        },
        {
          "internalType": "uint256",
          "name": "highestBid",
          "type": "uint256"
        },
        {
          "internalType": "uint256",
          "name": "startTime",
          "type": "uint256"
        },
        {
          "internalType": "uint256",
          "name": "endTime",
          "type": "uint256"
        },
        {
          "internalType": "string",
          "name": "auctionName",
          "type": "string"
        },
        {
          "internalType": "enum MultiEnglishAuction.AuctionStatus",
          "name": "auctionStatus",
          "type": "uint8"
        },
        {
          "internalType": "bool",
          "name": "handbrakeOn",
          "type": "bool"
        }
      ],
      "stateMutability": "view",
      "type": "function"
    },
    {
      "inputs": [
        {
          "internalType": "uint256",
          "name": "",
          "type": "uint256"
        },
        {
          "internalType": "address",
          "name": "",
          "type": "address"
        }
      ],
      "name": "bids",
      "outputs": [
        {
          "internalType": "uint256",
          "name": "",
          "type": "uint256"
        }
      ],
      "stateMutability": "view",
      "type": "function"
    },
    {
      "inputs": [
        {
          "internalType": "bytes32",
          "name": "role",
          "type": "bytes32"
        }
      ],
      "name": "getRoleAdmin",
      "outputs": [
        {
          "internalType": "bytes32",
          "name": "",
          "type": "bytes32"
        }
      ],
      "stateMutability": "view",
      "type": "function"
    },
    {
      "inputs": [
        {
          "internalType": "bytes32",
          "name": "role",
          "type": "bytes32"
        },
        {
          "internalType": "address",
          "name": "account",
          "type": "address"
        }
      ],
      "name": "grantRole",
      "outputs": [],
      "stateMutability": "nonpayable",
      "type": "function"
    },
    {
      "inputs": [
        {
          "internalType": "bytes32",
          "name": "role",
          "type": "bytes32"
        },
        {
          "internalType": "address",
          "name": "account",
          "type": "address"
        }
      ],
      "name": "hasRole",
      "outputs": [
        {
          "internalType": "bool",
          "name": "",
          "type": "bool"
        }
      ],
      "stateMutability": "view",
      "type": "function"
    },
    {
      "inputs": [
        {
          "internalType": "bytes32",
          "name": "role",
          "type": "bytes32"
        },
        {
          "internalType": "address",
          "name": "account",
          "type": "address"
        }
      ],
      "name": "renounceRole",
      "outputs": [],
      "stateMutability": "nonpayable",
      "type": "function"
    },
    {
      "inputs": [
        {
          "internalType": "bytes32",
          "name": "role",
          "type": "bytes32"
        },
        {
          "internalType": "address",
          "name": "account",
          "type": "address"
        }
      ],
      "name": "revokeRole",
      "outputs": [],
      "stateMutability": "nonpayable",
      "type": "function"
    },
    {
      "inputs": [
        {
          "internalType": "bytes4",
          "name": "interfaceId",
          "type": "bytes4"
        }
      ],
      "name": "supportsInterface",
      "outputs": [
        {
          "internalType": "bool",
          "name": "",
          "type": "bool"
        }
      ],
      "stateMutability": "view",
      "type": "function"
    },
    {
      "inputs": [
        {
          "internalType": "address",
          "name": "_nftContract",
          "type": "address"
        },
        {
          "internalType": "uint256",
          "name": "_tokenId",
          "type": "uint256"
        },
        {
          "internalType": "uint256",
          "name": "_startingBid",
          "type": "uint256"
        },
        {
          "internalType": "string",
          "name": "_auctionName",
          "type": "string"
        }
      ],
      "name": "setupAuction",
      "outputs": [],
      "stateMutability": "nonpayable",
      "type": "function"
    },
    {
      "inputs": [
        {
          "internalType": "uint256",
          "name": "_auctionId",
          "type": "uint256"
        }
      ],
      "name": "toggleAuctionHandbrake",
      "outputs": [],
      "stateMutability": "nonpayable",
      "type": "function"
    },
    {
      "inputs": [
        {
          "internalType": "uint256",
          "name": "_auctionId",
          "type": "uint256"
        },
        {
          "internalType": "uint256",
          "name": "numHoursDuration",
          "type": "uint256"
        }
      ],
      "name": "start",
      "outputs": [],
      "stateMutability": "nonpayable",
      "type": "function"
    },
    {
      "inputs": [
        {
          "internalType": "uint256",
          "name": "_auctionId",
          "type": "uint256"
        }
      ],
      "name": "end",
      "outputs": [],
      "stateMutability": "nonpayable",
      "type": "function"
    },
    {
      "inputs": [
        {
          "internalType": "uint256",
          "name": "_auctionId",
          "type": "uint256"
        },
        {
          "internalType": "address",
          "name": "_addr",
          "type": "address"
        }
      ],
      "name": "pushWithdrawl",
      "outputs": [],
      "stateMutability": "nonpayable",
      "type": "function"
    },
    {
      "inputs": [
        {
          "internalType": "uint256",
          "name": "_auctionId",
          "type": "uint256"
        }
      ],
      "name": "auctionDetails",
      "outputs": [
        {
          "components": [
            {
              "internalType": "address",
              "name": "nftContract",
              "type": "address"
            },
            {
              "internalType": "address payable",
              "name": "seller",
              "type": "address"
            },
            {
              "internalType": "address payable",
              "name": "highestBidder",
              "type": "address"
            },
            {
              "internalType": "uint256",
              "name": "tokenId",
              "type": "uint256"
            },
            {
              "internalType": "uint256",
              "name": "startingBid",
              "type": "uint256"
            },
            {
              "internalType": "uint256",
              "name": "highestBid",
              "type": "uint256"
            },
            {
              "internalType": "uint256",
              "name": "startTime",
              "type": "uint256"
            },
            {
              "internalType": "uint256",
              "name": "endTime",
              "type": "uint256"
            },
            {
              "internalType": "string",
              "name": "auctionName",
              "type": "string"
            },
            {
              "internalType": "enum MultiEnglishAuction.AuctionStatus",
              "name": "auctionStatus",
              "type": "uint8"
            },
            {
              "internalType": "bool",
              "name": "handbrakeOn",
              "type": "bool"
            }
          ],
          "internalType": "struct MultiEnglishAuction.AuctionDetails",
          "name": "_auctionDetails",
          "type": "tuple"
        },
        {
          "internalType": "uint256",
          "name": "_myBid",
          "type": "uint256"
        }
      ],
      "stateMutability": "view",
      "type": "function"
    },
    {
      "inputs": [
        {
          "internalType": "uint256",
          "name": "_auctionId",
          "type": "uint256"
        }
      ],
      "name": "bid",
      "outputs": [],
      "stateMutability": "payable",
      "type": "function"
    },
    {
      "inputs": [
        {
          "internalType": "uint256",
          "name": "_auctionId",
          "type": "uint256"
        }
      ],
      "name": "withdraw",
      "outputs": [],
      "stateMutability": "nonpayable",
      "type": "function"
    }
  ],
  "bytecode": "0x60806040523480156200001157600080fd5b50620000276000801b336200002d60201b60201c565b620001a6565b6200003f82826200004360201b60201c565b5050565b6200005582826200013460201b60201c565b6200013057600160008084815260200190815260200160002060000160008373ffffffffffffffffffffffffffffffffffffffff1673ffffffffffffffffffffffffffffffffffffffff16815260200190815260200160002060006101000a81548160ff021916908315150217905550620000d56200019e60201b60201c565b73ffffffffffffffffffffffffffffffffffffffff168173ffffffffffffffffffffffffffffffffffffffff16837f2f8788117e7eff1d82e926ec794901d17c78024a50270940304540a733656f0d60405160405180910390a45b5050565b600080600084815260200190815260200160002060000160008373ffffffffffffffffffffffffffffffffffffffff1673ffffffffffffffffffffffffffffffffffffffff16815260200190815260200160002060009054906101000a900460ff16905092915050565b600033905090565b613b3b80620001b66000396000f3fe6080604052600436106100fe5760003560e01c8063571a26a01161009557806393cb801e1161006457806393cb801e14610365578063a217fddf1461038e578063c1251ad7146103b9578063d547741f146103e2578063ef712a5c1461040b576100fe565b8063571a26a01461027a5780638603d31a146102c15780638fb4b573146102ff57806391d1485414610328576100fe565b80632f2ff15d116100d15780632f2ff15d146101cf57806336568abe146101f85780633f1ffcec14610221578063454a2ab31461025e576100fe565b806301ffc9a7146101035780630ad2452814610140578063248a9ca3146101695780632e1a7d4d146101a6575b600080fd5b34801561010f57600080fd5b5061012a600480360381019061012591906127fa565b610434565b6040516101379190612842565b60405180910390f35b34801561014c57600080fd5b5061016760048036038101906101629190612893565b6104ae565b005b34801561017557600080fd5b50610190600480360381019061018b91906128f6565b610ac2565b60405161019d9190612932565b60405180910390f35b3480156101b257600080fd5b506101cd60048036038101906101c89190612893565b610ae1565b005b3480156101db57600080fd5b506101f660048036038101906101f191906129ab565b610d59565b005b34801561020457600080fd5b5061021f600480360381019061021a91906129ab565b610d82565b005b34801561022d57600080fd5b50610248600480360381019061024391906129eb565b610e05565b6040516102559190612a3a565b60405180910390f35b61027860048036038101906102739190612893565b610e2a565b005b34801561028657600080fd5b506102a1600480360381019061029c9190612893565b61122b565b6040516102b89b9a99989796959493929190612b95565b60405180910390f35b3480156102cd57600080fd5b506102e860048036038101906102e39190612893565b611397565b6040516102f6929190612dcb565b60405180910390f35b34801561030b57600080fd5b5061032660048036038101906103219190612dfb565b611645565b005b34801561033457600080fd5b5061034f600480360381019061034a91906129ab565b611974565b60405161035c9190612842565b60405180910390f35b34801561037157600080fd5b5061038c60048036038101906103879190612893565b6119de565b005b34801561039a57600080fd5b506103a3611a67565b6040516103b09190612932565b60405180910390f35b3480156103c557600080fd5b506103e060048036038101906103db91906129eb565b611a6e565b005b3480156103ee57600080fd5b50610409600480360381019061040491906129ab565b611d95565b005b34801561041757600080fd5b50610432600480360381019061042d9190612f70565b611dbe565b005b60007f7965db0b000000000000000000000000000000000000000000000000000000007bffffffffffffffffffffffffffffffffffffffffffffffffffffffff1916827bffffffffffffffffffffffffffffffffffffffffffffffffffffffff191614806104a757506104a68261210c565b5b9050919050565b6000801b6104c3816104be612176565b61217e565b600160028111156104d7576104d6612b1e565b5b600183815481106104eb576104ea612ff3565b5b90600052602060002090600a020160090160009054906101000a900460ff16600281111561051c5761051b612b1e565b5b1461055c576040517f08c379a000000000000000000000000000000000000000000000000000000000815260040161055390613094565b60405180910390fd5b600182815481106105705761056f612ff3565b5b90600052602060002090600a0201600701544210156105c4576040517f08c379a00000000000000000000000000000000000000000000000000000000081526004016105bb90613126565b60405180910390fd5b6002600183815481106105da576105d9612ff3565b5b90600052602060002090600a020160090160006101000a81548160ff0219169083600281111561060d5761060c612b1e565b5b0217905550600073ffffffffffffffffffffffffffffffffffffffff166001838154811061063e5761063d612ff3565b5b90600052602060002090600a020160020160009054906101000a900473ffffffffffffffffffffffffffffffffffffffff1673ffffffffffffffffffffffffffffffffffffffff16146108fa576001828154811061069f5761069e612ff3565b5b90600052602060002090600a020160010160009054906101000a900473ffffffffffffffffffffffffffffffffffffffff1673ffffffffffffffffffffffffffffffffffffffff166108fc600184815481106106fe576106fd612ff3565b5b90600052602060002090600a0201600501549081150290604051600060405180830381858888f1935050505015801561073b573d6000803e3d6000fd5b5060006002600084815260200190815260200160002060006001858154811061076757610766612ff3565b5b90600052602060002090600a020160020160009054906101000a900473ffffffffffffffffffffffffffffffffffffffff1673ffffffffffffffffffffffffffffffffffffffff1673ffffffffffffffffffffffffffffffffffffffff16815260200190815260200160002081905550600182815481106107eb576107ea612ff3565b5b90600052602060002090600a020160000160009054906101000a900473ffffffffffffffffffffffffffffffffffffffff1673ffffffffffffffffffffffffffffffffffffffff166342842e0e306001858154811061084d5761084c612ff3565b5b90600052602060002090600a020160020160009054906101000a900473ffffffffffffffffffffffffffffffffffffffff166001868154811061089357610892612ff3565b5b90600052602060002090600a0201600301546040518463ffffffff1660e01b81526004016108c3939291906131a5565b600060405180830381600087803b1580156108dd57600080fd5b505af11580156108f1573d6000803e3d6000fd5b50505050610a19565b6001828154811061090e5761090d612ff3565b5b90600052602060002090600a020160000160009054906101000a900473ffffffffffffffffffffffffffffffffffffffff1673ffffffffffffffffffffffffffffffffffffffff166342842e0e30600185815481106109705761096f612ff3565b5b90600052602060002090600a020160010160009054906101000a900473ffffffffffffffffffffffffffffffffffffffff16600186815481106109b6576109b5612ff3565b5b90600052602060002090600a0201600301546040518463ffffffff1660e01b81526004016109e6939291906131a5565b600060405180830381600087803b158015610a0057600080fd5b505af1158015610a14573d6000803e3d6000fd5b505050505b7fd2aa34a4fdbbc6dff6a3e56f46e0f3ae2a31d7785ff3487aa5c95c642acea5018260018481548110610a4f57610a4e612ff3565b5b90600052602060002090600a020160020160009054906101000a900473ffffffffffffffffffffffffffffffffffffffff1660018581548110610a9557610a94612ff3565b5b90600052602060002090600a020160050154604051610ab6939291906131dc565b60405180910390a15050565b6000806000838152602001908152602001600020600101549050919050565b60018181548110610af557610af4612ff3565b5b90600052602060002090600a020160020160009054906101000a900473ffffffffffffffffffffffffffffffffffffffff1673ffffffffffffffffffffffffffffffffffffffff163373ffffffffffffffffffffffffffffffffffffffff161415610b95576040517f08c379a0000000000000000000000000000000000000000000000000000000008152600401610b8c9061325f565b60405180910390fd5b60006002600083815260200190815260200160002060003373ffffffffffffffffffffffffffffffffffffffff1673ffffffffffffffffffffffffffffffffffffffff1681526020019081526020016000205411610c28576040517f08c379a0000000000000000000000000000000000000000000000000000000008152600401610c1f906132cb565b60405180910390fd5b60006002600083815260200190815260200160002060003373ffffffffffffffffffffffffffffffffffffffff1673ffffffffffffffffffffffffffffffffffffffff16815260200190815260200160002054905060006002600084815260200190815260200160002060003373ffffffffffffffffffffffffffffffffffffffff1673ffffffffffffffffffffffffffffffffffffffff168152602001908152602001600020819055503373ffffffffffffffffffffffffffffffffffffffff166108fc829081150290604051600060405180830381858888f19350505050158015610d19573d6000803e3d6000fd5b507f9da6493a92039daf47d1f2d7a782299c5994c6323eb1e972f69c432089ec52bf823383604051610d4d939291906132eb565b60405180910390a15050565b610d6282610ac2565b610d7381610d6e612176565b61217e565b610d7d838361221b565b505050565b610d8a612176565b73ffffffffffffffffffffffffffffffffffffffff168173ffffffffffffffffffffffffffffffffffffffff1614610df7576040517f08c379a0000000000000000000000000000000000000000000000000000000008152600401610dee90613394565b60405180910390fd5b610e0182826122fb565b5050565b6002602052816000526040600020602052806000526040600020600091509150505481565b60016002811115610e3e57610e3d612b1e565b5b60018281548110610e5257610e51612ff3565b5b90600052602060002090600a020160090160009054906101000a900460ff166002811115610e8357610e82612b1e565b5b14610ec3576040517f08c379a0000000000000000000000000000000000000000000000000000000008152600401610eba90613094565b60405180910390fd5b60018181548110610ed757610ed6612ff3565b5b90600052602060002090600a020160090160019054906101000a900460ff1615610f36576040517f08c379a0000000000000000000000000000000000000000000000000000000008152600401610f2d90613400565b60405180910390fd5b60018181548110610f4a57610f49612ff3565b5b90600052602060002090600a0201600701544210610f9d576040517f08c379a0000000000000000000000000000000000000000000000000000000008152600401610f949061346c565b60405180910390fd5b610fa6336123dc565b15610fe6576040517f08c379a0000000000000000000000000000000000000000000000000000000008152600401610fdd906134d8565b60405180910390fd5b60018181548110610ffa57610ff9612ff3565b5b90600052602060002090600a020160050154346002600084815260200190815260200160002060003373ffffffffffffffffffffffffffffffffffffffff1673ffffffffffffffffffffffffffffffffffffffff168152602001908152602001600020546110689190613527565b116110a8576040517f08c379a000000000000000000000000000000000000000000000000000000000815260040161109f906135c9565b60405180910390fd5b346002600083815260200190815260200160002060003373ffffffffffffffffffffffffffffffffffffffff1673ffffffffffffffffffffffffffffffffffffffff16815260200190815260200160002060008282546111089190613527565b925050819055506002600082815260200190815260200160002060003373ffffffffffffffffffffffffffffffffffffffff1673ffffffffffffffffffffffffffffffffffffffff168152602001908152602001600020546001828154811061117457611173612ff3565b5b90600052602060002090600a020160050181905550336001828154811061119e5761119d612ff3565b5b90600052602060002090600a020160020160006101000a81548173ffffffffffffffffffffffffffffffffffffffff021916908373ffffffffffffffffffffffffffffffffffffffff1602179055507f162ec8778d6d18b5bc58711e4b25e07290b94c630e224fc6b57110717495e718813334604051611220939291906132eb565b60405180910390a150565b6001818154811061123b57600080fd5b90600052602060002090600a02016000915090508060000160009054906101000a900473ffffffffffffffffffffffffffffffffffffffff16908060010160009054906101000a900473ffffffffffffffffffffffffffffffffffffffff16908060020160009054906101000a900473ffffffffffffffffffffffffffffffffffffffff16908060030154908060040154908060050154908060060154908060070154908060080180546112ee90613618565b80601f016020809104026020016040519081016040528092919081815260200182805461131a90613618565b80156113675780601f1061133c57610100808354040283529160200191611367565b820191906000526020600020905b81548152906001019060200180831161134a57829003601f168201915b5050505050908060090160009054906101000a900460ff16908060090160019054906101000a900460ff1690508b565b61139f61263b565b6000600183815481106113b5576113b4612ff3565b5b90600052602060002090600a0201604051806101600160405290816000820160009054906101000a900473ffffffffffffffffffffffffffffffffffffffff1673ffffffffffffffffffffffffffffffffffffffff1673ffffffffffffffffffffffffffffffffffffffff1681526020016001820160009054906101000a900473ffffffffffffffffffffffffffffffffffffffff1673ffffffffffffffffffffffffffffffffffffffff1673ffffffffffffffffffffffffffffffffffffffff1681526020016002820160009054906101000a900473ffffffffffffffffffffffffffffffffffffffff1673ffffffffffffffffffffffffffffffffffffffff1673ffffffffffffffffffffffffffffffffffffffff168152602001600382015481526020016004820154815260200160058201548152602001600682015481526020016007820154815260200160088201805461151390613618565b80601f016020809104026020016040519081016040528092919081815260200182805461153f90613618565b801561158c5780601f106115615761010080835404028352916020019161158c565b820191906000526020600020905b81548152906001019060200180831161156f57829003601f168201915b505050505081526020016009820160009054906101000a900460ff1660028111156115ba576115b9612b1e565b5b60028111156115cc576115cb612b1e565b5b81526020016009820160019054906101000a900460ff16151515158152505091506002600084815260200190815260200160002060003373ffffffffffffffffffffffffffffffffffffffff1673ffffffffffffffffffffffffffffffffffffffff168152602001908152602001600020549050915091565b6000801b61165a81611655612176565b61217e565b6000600281111561166e5761166d612b1e565b5b6001848154811061168257611681612ff3565b5b90600052602060002090600a020160090160009054906101000a900460ff1660028111156116b3576116b2612b1e565b5b146116f3576040517f08c379a00000000000000000000000000000000000000000000000000000000081526004016116ea906136bc565b60405180910390fd5b6001838154811061170757611706612ff3565b5b90600052602060002090600a020160010160009054906101000a900473ffffffffffffffffffffffffffffffffffffffff1673ffffffffffffffffffffffffffffffffffffffff163373ffffffffffffffffffffffffffffffffffffffff16146117a6576040517f08c379a000000000000000000000000000000000000000000000000000000000815260040161179d90613728565b60405180910390fd5b60018084815481106117bb576117ba612ff3565b5b90600052602060002090600a020160090160006101000a81548160ff021916908360028111156117ee576117ed612b1e565b5b0217905550426001848154811061180857611807612ff3565b5b90600052602060002090600a020160060181905550610e108261182b9190613748565b426118369190613527565b6001848154811061184a57611849612ff3565b5b90600052602060002090600a0201600701819055506001838154811061187357611872612ff3565b5b90600052602060002090600a020160000160009054906101000a900473ffffffffffffffffffffffffffffffffffffffff1673ffffffffffffffffffffffffffffffffffffffff166323b872dd3330600187815481106118d6576118d5612ff3565b5b90600052602060002090600a0201600301546040518463ffffffff1660e01b8152600401611906939291906137a2565b600060405180830381600087803b15801561192057600080fd5b505af1158015611934573d6000803e3d6000fd5b505050507f1bb96dff6ab5005aff98cdc0cf176bb7d8e0423cb48e02217d35b042cec81e9f836040516119679190612a3a565b60405180910390a1505050565b600080600084815260200190815260200160002060000160008373ffffffffffffffffffffffffffffffffffffffff1673ffffffffffffffffffffffffffffffffffffffff16815260200190815260200160002060009054906101000a900460ff16905092915050565b6000801b6119f3816119ee612176565b61217e565b60018281548110611a0757611a06612ff3565b5b90600052602060002090600a020160090160019054906101000a900460ff161560018381548110611a3b57611a3a612ff3565b5b90600052602060002090600a020160090160016101000a81548160ff0219169083151502179055505050565b6000801b81565b6000801b611a8381611a7e612176565b61217e565b600280811115611a9657611a95612b1e565b5b60018481548110611aaa57611aa9612ff3565b5b90600052602060002090600a020160090160009054906101000a900460ff166002811115611adb57611ada612b1e565b5b14611b1b576040517f08c379a0000000000000000000000000000000000000000000000000000000008152600401611b129061384b565b60405180910390fd5b60018381548110611b2f57611b2e612ff3565b5b90600052602060002090600a020160020160009054906101000a900473ffffffffffffffffffffffffffffffffffffffff1673ffffffffffffffffffffffffffffffffffffffff168273ffffffffffffffffffffffffffffffffffffffff161415611bcf576040517f08c379a0000000000000000000000000000000000000000000000000000000008152600401611bc69061325f565b60405180910390fd5b60006002600085815260200190815260200160002060008473ffffffffffffffffffffffffffffffffffffffff1673ffffffffffffffffffffffffffffffffffffffff1681526020019081526020016000205411611c62576040517f08c379a0000000000000000000000000000000000000000000000000000000008152600401611c59906132cb565b60405180910390fd5b60006002600085815260200190815260200160002060008473ffffffffffffffffffffffffffffffffffffffff1673ffffffffffffffffffffffffffffffffffffffff16815260200190815260200160002054905060006002600086815260200190815260200160002060008573ffffffffffffffffffffffffffffffffffffffff1673ffffffffffffffffffffffffffffffffffffffff168152602001908152602001600020819055508273ffffffffffffffffffffffffffffffffffffffff166108fc829081150290604051600060405180830381858888f19350505050158015611d53573d6000803e3d6000fd5b507f64cf371e4113d6186ba89e14ea04b11c10192bad6f0fc4e0b1d18e972511835d848483604051611d87939291906132eb565b60405180910390a150505050565b611d9e82610ac2565b611daf81611daa612176565b61217e565b611db983836122fb565b505050565b6000801b611dd381611dce612176565b61217e565b3373ffffffffffffffffffffffffffffffffffffffff168573ffffffffffffffffffffffffffffffffffffffff16636352211e866040518263ffffffff1660e01b8152600401611e239190612a3a565b602060405180830381865afa158015611e40573d6000803e3d6000fd5b505050506040513d601f19601f82011682018060405250810190611e649190613880565b73ffffffffffffffffffffffffffffffffffffffff1614611eba576040517f08c379a0000000000000000000000000000000000000000000000000000000008152600401611eb19061391f565b60405180910390fd5b60016040518061016001604052808773ffffffffffffffffffffffffffffffffffffffff1681526020013373ffffffffffffffffffffffffffffffffffffffff168152602001600073ffffffffffffffffffffffffffffffffffffffff168152602001868152602001858152602001858152602001600081526020016000815260200184815260200160006002811115611f5757611f56612b1e565b5b81526020016000151581525090806001815401808255809150506001900390600052602060002090600a020160009091909190915060008201518160000160006101000a81548173ffffffffffffffffffffffffffffffffffffffff021916908373ffffffffffffffffffffffffffffffffffffffff16021790555060208201518160010160006101000a81548173ffffffffffffffffffffffffffffffffffffffff021916908373ffffffffffffffffffffffffffffffffffffffff16021790555060408201518160020160006101000a81548173ffffffffffffffffffffffffffffffffffffffff021916908373ffffffffffffffffffffffffffffffffffffffff160217905550606082015181600301556080820151816004015560a0820151816005015560c0820151816006015560e082015181600701556101008201518160080190805190602001906120b09291906126eb565b506101208201518160090160006101000a81548160ff021916908360028111156120dd576120dc612b1e565b5b02179055506101408201518160090160016101000a81548160ff02191690831515021790555050505050505050565b60007f01ffc9a7000000000000000000000000000000000000000000000000000000007bffffffffffffffffffffffffffffffffffffffffffffffffffffffff1916827bffffffffffffffffffffffffffffffffffffffffffffffffffffffff1916149050919050565b600033905090565b6121888282611974565b612217576121ad8173ffffffffffffffffffffffffffffffffffffffff1660146123ff565b6121bb8360001c60206123ff565b6040516020016121cc929190613a13565b6040516020818303038152906040526040517f08c379a000000000000000000000000000000000000000000000000000000000815260040161220e9190613a4d565b60405180910390fd5b5050565b6122258282611974565b6122f757600160008084815260200190815260200160002060000160008373ffffffffffffffffffffffffffffffffffffffff1673ffffffffffffffffffffffffffffffffffffffff16815260200190815260200160002060006101000a81548160ff02191690831515021790555061229c612176565b73ffffffffffffffffffffffffffffffffffffffff168173ffffffffffffffffffffffffffffffffffffffff16837f2f8788117e7eff1d82e926ec794901d17c78024a50270940304540a733656f0d60405160405180910390a45b5050565b6123058282611974565b156123d857600080600084815260200190815260200160002060000160008373ffffffffffffffffffffffffffffffffffffffff1673ffffffffffffffffffffffffffffffffffffffff16815260200190815260200160002060006101000a81548160ff02191690831515021790555061237d612176565b73ffffffffffffffffffffffffffffffffffffffff168173ffffffffffffffffffffffffffffffffffffffff16837ff6391f5c32d9c69d2a47ea670b442974b53935d1edc7fd64eb21e047a839171b60405160405180910390a45b5050565b6000808273ffffffffffffffffffffffffffffffffffffffff163b119050919050565b6060600060028360026124129190613748565b61241c9190613527565b67ffffffffffffffff81111561243557612434612e45565b5b6040519080825280601f01601f1916602001820160405280156124675781602001600182028036833780820191505090505b5090507f30000000000000000000000000000000000000000000000000000000000000008160008151811061249f5761249e612ff3565b5b60200101907effffffffffffffffffffffffffffffffffffffffffffffffffffffffffffff1916908160001a9053507f78000000000000000000000000000000000000000000000000000000000000008160018151811061250357612502612ff3565b5b60200101907effffffffffffffffffffffffffffffffffffffffffffffffffffffffffffff1916908160001a905350600060018460026125439190613748565b61254d9190613527565b90505b60018111156125ed577f3031323334353637383961626364656600000000000000000000000000000000600f86166010811061258f5761258e612ff3565b5b1a60f81b8282815181106125a6576125a5612ff3565b5b60200101907effffffffffffffffffffffffffffffffffffffffffffffffffffffffffffff1916908160001a905350600485901c9450806125e690613a6f565b9050612550565b5060008414612631576040517f08c379a000000000000000000000000000000000000000000000000000000000815260040161262890613ae5565b60405180910390fd5b8091505092915050565b604051806101600160405280600073ffffffffffffffffffffffffffffffffffffffff168152602001600073ffffffffffffffffffffffffffffffffffffffff168152602001600073ffffffffffffffffffffffffffffffffffffffff168152602001600081526020016000815260200160008152602001600081526020016000815260200160608152602001600060028111156126dc576126db612b1e565b5b81526020016000151581525090565b8280546126f790613618565b90600052602060002090601f0160209004810192826127195760008555612760565b82601f1061273257805160ff1916838001178555612760565b82800160010185558215612760579182015b8281111561275f578251825591602001919060010190612744565b5b50905061276d9190612771565b5090565b5b8082111561278a576000816000905550600101612772565b5090565b6000604051905090565b600080fd5b600080fd5b60007fffffffff0000000000000000000000000000000000000000000000000000000082169050919050565b6127d7816127a2565b81146127e257600080fd5b50565b6000813590506127f4816127ce565b92915050565b6000602082840312156128105761280f612798565b5b600061281e848285016127e5565b91505092915050565b60008115159050919050565b61283c81612827565b82525050565b60006020820190506128576000830184612833565b92915050565b6000819050919050565b6128708161285d565b811461287b57600080fd5b50565b60008135905061288d81612867565b92915050565b6000602082840312156128a9576128a8612798565b5b60006128b78482850161287e565b91505092915050565b6000819050919050565b6128d3816128c0565b81146128de57600080fd5b50565b6000813590506128f0816128ca565b92915050565b60006020828403121561290c5761290b612798565b5b600061291a848285016128e1565b91505092915050565b61292c816128c0565b82525050565b60006020820190506129476000830184612923565b92915050565b600073ffffffffffffffffffffffffffffffffffffffff82169050919050565b60006129788261294d565b9050919050565b6129888161296d565b811461299357600080fd5b50565b6000813590506129a58161297f565b92915050565b600080604083850312156129c2576129c1612798565b5b60006129d0858286016128e1565b92505060206129e185828601612996565b9150509250929050565b60008060408385031215612a0257612a01612798565b5b6000612a108582860161287e565b9250506020612a2185828601612996565b9150509250929050565b612a348161285d565b82525050565b6000602082019050612a4f6000830184612a2b565b92915050565b612a5e8161296d565b82525050565b6000612a6f8261294d565b9050919050565b612a7f81612a64565b82525050565b600081519050919050565b600082825260208201905092915050565b60005b83811015612abf578082015181840152602081019050612aa4565b83811115612ace576000848401525b50505050565b6000601f19601f8301169050919050565b6000612af082612a85565b612afa8185612a90565b9350612b0a818560208601612aa1565b612b1381612ad4565b840191505092915050565b7f4e487b7100000000000000000000000000000000000000000000000000000000600052602160045260246000fd5b60038110612b5e57612b5d612b1e565b5b50565b6000819050612b6f82612b4d565b919050565b6000612b7f82612b61565b9050919050565b612b8f81612b74565b82525050565b600061016082019050612bab600083018e612a55565b612bb8602083018d612a76565b612bc5604083018c612a76565b612bd2606083018b612a2b565b612bdf608083018a612a2b565b612bec60a0830189612a2b565b612bf960c0830188612a2b565b612c0660e0830187612a2b565b818103610100830152612c198186612ae5565b9050612c29610120830185612b86565b612c37610140830184612833565b9c9b505050505050505050505050565b612c508161296d565b82525050565b612c5f81612a64565b82525050565b612c6e8161285d565b82525050565b600082825260208201905092915050565b6000612c9082612a85565b612c9a8185612c74565b9350612caa818560208601612aa1565b612cb381612ad4565b840191505092915050565b612cc781612b74565b82525050565b612cd681612827565b82525050565b600061016083016000830151612cf56000860182612c47565b506020830151612d086020860182612c56565b506040830151612d1b6040860182612c56565b506060830151612d2e6060860182612c65565b506080830151612d416080860182612c65565b5060a0830151612d5460a0860182612c65565b5060c0830151612d6760c0860182612c65565b5060e0830151612d7a60e0860182612c65565b50610100830151848203610100860152612d948282612c85565b915050610120830151612dab610120860182612cbe565b50610140830151612dc0610140860182612ccd565b508091505092915050565b60006040820190508181036000830152612de58185612cdc565b9050612df46020830184612a2b565b9392505050565b60008060408385031215612e1257612e11612798565b5b6000612e208582860161287e565b9250506020612e318582860161287e565b9150509250929050565b600080fd5b600080fd5b7f4e487b7100000000000000000000000000000000000000000000000000000000600052604160045260246000fd5b612e7d82612ad4565b810181811067ffffffffffffffff82111715612e9c57612e9b612e45565b5b80604052505050565b6000612eaf61278e565b9050612ebb8282612e74565b919050565b600067ffffffffffffffff821115612edb57612eda612e45565b5b612ee482612ad4565b9050602081019050919050565b82818337600083830152505050565b6000612f13612f0e84612ec0565b612ea5565b905082815260208101848484011115612f2f57612f2e612e40565b5b612f3a848285612ef1565b509392505050565b600082601f830112612f5757612f56612e3b565b5b8135612f67848260208601612f00565b91505092915050565b60008060008060808587031215612f8a57612f89612798565b5b6000612f9887828801612996565b9450506020612fa98782880161287e565b9350506040612fba8782880161287e565b925050606085013567ffffffffffffffff811115612fdb57612fda61279d565b5b612fe787828801612f42565b91505092959194509250565b7f4e487b7100000000000000000000000000000000000000000000000000000000600052603260045260246000fd5b7f41756374696f6e20737461746520696e76616c6964202872657175697265642060008201527f494e5f50524f4752455353290000000000000000000000000000000000000000602082015250565b600061307e602c83612a90565b915061308982613022565b604082019050919050565b600060208201905081810360008301526130ad81613071565b9050919050565b7f5761697420666f722061756374696f6e206475726174696f6e20746f2070617360008201527f7300000000000000000000000000000000000000000000000000000000000000602082015250565b6000613110602183612a90565b915061311b826130b4565b604082019050919050565b6000602082019050818103600083015261313f81613103565b9050919050565b6000819050919050565b600061316b6131666131618461294d565b613146565b61294d565b9050919050565b600061317d82613150565b9050919050565b600061318f82613172565b9050919050565b61319f81613184565b82525050565b60006060820190506131ba6000830186612a55565b6131c76020830185613196565b6131d46040830184612a2b565b949350505050565b60006060820190506131f16000830186612a2b565b6131fe6020830185613196565b61320b6040830184612a2b565b949350505050565b7f48696768657374206269646465722063616e2774207769746864726177000000600082015250565b6000613249601d83612a90565b915061325482613213565b602082019050919050565b600060208201905081810360008301526132788161323c565b9050919050565b7f4e6f2070656e64696e6720626964730000000000000000000000000000000000600082015250565b60006132b5600f83612a90565b91506132c08261327f565b602082019050919050565b600060208201905081810360008301526132e4816132a8565b9050919050565b60006060820190506133006000830186612a2b565b61330d6020830185612a55565b61331a6040830184612a2b565b949350505050565b7f416363657373436f6e74726f6c3a2063616e206f6e6c792072656e6f756e636560008201527f20726f6c657320666f722073656c660000000000000000000000000000000000602082015250565b600061337e602f83612a90565b915061338982613322565b604082019050919050565b600060208201905081810360008301526133ad81613371565b9050919050565b7f41756374696f6e2068616e646272616b65206973206f6e000000000000000000600082015250565b60006133ea601783612a90565b91506133f5826133b4565b602082019050919050565b60006020820190508181036000830152613419816133dd565b9050919050565b7f41756374696f6e20616c726561647920656e6465640000000000000000000000600082015250565b6000613456601583612a90565b915061346182613420565b602082019050919050565b6000602082019050818103600083015261348581613449565b9050919050565b7f436f6e74726163747320666f7262696464656e2066726f6d2062696464696e67600082015250565b60006134c2602083612a90565b91506134cd8261348c565b602082019050919050565b600060208201905081810360008301526134f1816134b5565b9050919050565b7f4e487b7100000000000000000000000000000000000000000000000000000000600052601160045260246000fd5b60006135328261285d565b915061353d8361285d565b9250827fffffffffffffffffffffffffffffffffffffffffffffffffffffffffffffffff03821115613572576135716134f8565b5b828201905092915050565b7f426964206973206e6f74206869676820656e6f75676800000000000000000000600082015250565b60006135b3601683612a90565b91506135be8261357d565b602082019050919050565b600060208201905081810360008301526135e2816135a6565b9050919050565b7f4e487b7100000000000000000000000000000000000000000000000000000000600052602260045260246000fd5b6000600282049050600182168061363057607f821691505b60208210811415613644576136436135e9565b5b50919050565b7f41756374696f6e20737461746520696e76616c6964202872657175697265642060008201527f4e4f545f53544152544544290000000000000000000000000000000000000000602082015250565b60006136a6602c83612a90565b91506136b18261364a565b604082019050919050565b600060208201905081810360008301526136d581613699565b9050919050565b7f53656c6c6572206e6565647320746f2073746172742061756374696f6e000000600082015250565b6000613712601d83612a90565b915061371d826136dc565b602082019050919050565b6000602082019050818103600083015261374181613705565b9050919050565b60006137538261285d565b915061375e8361285d565b9250817fffffffffffffffffffffffffffffffffffffffffffffffffffffffffffffffff0483118215151615613797576137966134f8565b5b828202905092915050565b60006060820190506137b76000830186612a55565b6137c46020830185612a55565b6137d16040830184612a2b565b949350505050565b7f41756374696f6e20737461746520696e76616c6964202872657175697265642060008201527f454e444544290000000000000000000000000000000000000000000000000000602082015250565b6000613835602683612a90565b9150613840826137d9565b604082019050919050565b6000602082019050818103600083015261386481613828565b9050919050565b60008151905061387a8161297f565b92915050565b60006020828403121561389657613895612798565b5b60006138a48482850161386b565b91505092915050565b7f4d75737420626520616e206f776e657220746f20636f6e66696775726520616e60008201527f64204e46542061756374696f6e00000000000000000000000000000000000000602082015250565b6000613909602d83612a90565b9150613914826138ad565b604082019050919050565b60006020820190508181036000830152613938816138fc565b9050919050565b600081905092915050565b7f416363657373436f6e74726f6c3a206163636f756e7420000000000000000000600082015250565b600061398060178361393f565b915061398b8261394a565b601782019050919050565b60006139a182612a85565b6139ab818561393f565b93506139bb818560208601612aa1565b80840191505092915050565b7f206973206d697373696e6720726f6c6520000000000000000000000000000000600082015250565b60006139fd60118361393f565b9150613a08826139c7565b601182019050919050565b6000613a1e82613973565b9150613a2a8285613996565b9150613a35826139f0565b9150613a418284613996565b91508190509392505050565b60006020820190508181036000830152613a678184612ae5565b905092915050565b6000613a7a8261285d565b91506000821415613a8e57613a8d6134f8565b5b600182039050919050565b7f537472696e67733a20686578206c656e67746820696e73756666696369656e74600082015250565b6000613acf602083612a90565b9150613ada82613a99565b602082019050919050565b60006020820190508181036000830152613afe81613ac2565b905091905056fea2646970667358221220c25ed1e03b74169464d85e3adb75d68b0e0322cd7c49955a82e4f4fd0d0a914864736f6c634300080b0033",
  "immutableReferences": {},
  "source": "//SPDX-License-Identifier: MIT\n\n/*\n    Auction\n    1.) Auction lasts for days specified at start.\n    2.) Participants can bid by depositing ETH greater than the current highest bidder.\n    3.) All bidders except the highest bidder can withdraw their bid\n\n    After the auction:\n    1.) Highest bidder becomes the new owner of NFT.\n    2.) The seller receives the highest bid of ETH.\n*/\n\npragma solidity 0.8.11;\npragma abicoder v2;\n\nimport \"@openzeppelin/contracts/access/AccessControl.sol\";\nimport \"@openzeppelin/contracts/token/ERC721/IERC721.sol\";\nimport \"@openzeppelin/contracts/utils/Address.sol\";\n\ncontract MultiEnglishAuction is AccessControl\n{\n    // ====================================================\n    // EVENTS\n    // ====================================================\n    event AuctionStarted(uint auctionId);\n    event AuctionEnded(uint auctionId, address addr, uint value);\n    event BidReceived(uint auctionId, address addr, uint value);\n    event Withdraw(uint auctionId, address addr, uint value);\n    event PushWithdraw(uint auctionId, address addr, uint bal);\n\n    // ====================================================\n    // ENUMS & STRUCTS\n    // ====================================================\n    enum AuctionStatus { NOT_STARTED, IN_PROGRESS, ENDED }\n\n    struct AuctionDetails {\n        address nftContract;\n        address payable seller;\n        address payable highestBidder;\n        uint tokenId;\n        uint startingBid;\n        uint highestBid;\n        uint startTime;\n        uint endTime;\n        string auctionName;\n        AuctionStatus auctionStatus;\n        bool handbrakeOn;\n    }\n\n    // ====================================================\n    // STATE\n    // ====================================================\n    AuctionDetails[] public auctions;\n    mapping(uint => mapping(address => uint)) public bids;\n\n    // ====================================================\n    // CONSTRUCTOR\n    // ====================================================\n    constructor()\n    {\n        _setupRole(DEFAULT_ADMIN_ROLE, msg.sender);\n    }\n\n    // ====================================================\n    // ADMIN\n    // ====================================================\n    function setupAuction(\n        address _nftContract,\n        uint _tokenId,\n        uint _startingBid,\n        string memory _auctionName\n    )\n        public\n        onlyRole(DEFAULT_ADMIN_ROLE)\n    {\n        require(IERC721(_nftContract).ownerOf(_tokenId) == msg.sender, \"Must be an owner to configure and NFT auction\");\n\n        auctions.push(\n            AuctionDetails({\n                nftContract: _nftContract,\n                seller: payable(msg.sender),\n                highestBidder: payable(0),\n                tokenId: _tokenId,\n                startingBid: _startingBid,\n                highestBid: _startingBid,\n                startTime: 0,\n                endTime: 0,\n                auctionName: _auctionName,\n                auctionStatus: AuctionStatus.NOT_STARTED,\n                handbrakeOn: false\n            })\n        );\n    }\n\n    function toggleAuctionHandbrake(uint _auctionId)\n        public\n        onlyRole(DEFAULT_ADMIN_ROLE)\n    {\n        auctions[_auctionId].handbrakeOn = !auctions[_auctionId].handbrakeOn;\n    }\n\n    function start(uint _auctionId, uint numHoursDuration)\n        public\n        onlyRole(DEFAULT_ADMIN_ROLE)\n    {\n        // ensure auction is in NOT_STARTED state\n        require(auctions[_auctionId].auctionStatus == AuctionStatus.NOT_STARTED, \"Auction state invalid (required NOT_STARTED)\");\n\n        require(msg.sender == auctions[_auctionId].seller, \"Seller needs to start auction\");\n        \n        auctions[_auctionId].auctionStatus = AuctionStatus.IN_PROGRESS;\n        auctions[_auctionId].startTime = block.timestamp;\n        auctions[_auctionId].endTime = block.timestamp + numHoursDuration * 1 hours;\n\n        IERC721(auctions[_auctionId].nftContract).transferFrom(msg.sender, address(this), auctions[_auctionId].tokenId);\n\n        emit AuctionStarted(_auctionId);\n    }\n\n    function end(uint _auctionId)\n        public\n        onlyRole(DEFAULT_ADMIN_ROLE)\n    {\n        // ensure auction is in NOT_STARTED state\n        require(auctions[_auctionId].auctionStatus == AuctionStatus.IN_PROGRESS, \"Auction state invalid (required IN_PROGRESS)\");\n\n        // check if auction time has elapsed\n        require(block.timestamp >= auctions[_auctionId].endTime, \"Wait for auction duration to pass\");\n\n        auctions[_auctionId].auctionStatus = AuctionStatus.ENDED;\n        \n        if(auctions[_auctionId].highestBidder != address(0)) {\n            // higher bids received, transfer funds & nft\n            auctions[_auctionId].seller.transfer(auctions[_auctionId].highestBid);\n            bids[_auctionId][auctions[_auctionId].highestBidder] = 0;\n            IERC721(auctions[_auctionId].nftContract).safeTransferFrom(address(this), auctions[_auctionId].highestBidder, auctions[_auctionId].tokenId);\n        }\n        else {\n            // no bids higher than original startingBid, send nft back to seller\n            IERC721(auctions[_auctionId].nftContract).safeTransferFrom(address(this), auctions[_auctionId].seller, auctions[_auctionId].tokenId);\n        }\n\n        emit AuctionEnded(_auctionId, auctions[_auctionId].highestBidder, auctions[_auctionId].highestBid);\n    }\n\n    /**\n    Ability for  admin role to push a withdrawl\n     */\n    function pushWithdrawl(uint _auctionId, address _addr)\n        public\n        onlyRole(DEFAULT_ADMIN_ROLE)\n    {\n        // ensure auction is in ENDED state\n        require(auctions[_auctionId].auctionStatus == AuctionStatus.ENDED, \"Auction state invalid (required ENDED)\");\n\n        // ensure withdrwal is not for highest bidder\n        require(_addr != auctions[_auctionId].highestBidder, \"Highest bidder can't withdraw\");\n\n        // ensure bidder has a withdrawl balance\n        require(bids[_auctionId][_addr] > 0, \"No pending bids\");\n\n        uint bal = bids[_auctionId][_addr];\n        bids[_auctionId][_addr] = 0;\n        payable(_addr).transfer(bal);\n\n        emit PushWithdraw(_auctionId, _addr, bal);\n    }\n\n    // ====================================================\n    // PUBLIC API\n    // ====================================================\n    function auctionDetails(uint _auctionId)\n        public\n        view\n        returns(AuctionDetails memory _auctionDetails, uint _myBid)\n    {\n        _auctionDetails = auctions[_auctionId];\n        _myBid = bids[_auctionId][msg.sender];\n    }\n\n    function bid(uint _auctionId)\n        public\n        payable\n    {\n        // ensure auction is in NOT_STARTED state and handbrake isn't on\n        require(auctions[_auctionId].auctionStatus == AuctionStatus.IN_PROGRESS, \"Auction state invalid (required IN_PROGRESS)\");\n        require(!auctions[_auctionId].handbrakeOn, \"Auction handbrake is on\");\n\n        // ensure auction time has not expires\n        require(block.timestamp < auctions[_auctionId].endTime, \"Auction already ended\");\n\n        // no bidding from contracts permitted\n        require(!Address.isContract(msg.sender), \"Contracts forbidden from bidding\");\n\n        // ensure bid is higher than current highest bid\n        require(bids[_auctionId][msg.sender] + msg.value > auctions[_auctionId].highestBid, \"Bid is not high enough\");\n\n        // record state changes\n        bids[_auctionId][msg.sender] += msg.value;\n        auctions[_auctionId].highestBid = bids[_auctionId][msg.sender];\n        auctions[_auctionId].highestBidder = payable(msg.sender);\n\n        emit BidReceived(_auctionId, msg.sender, msg.value);\n    }\n\n    function withdraw(uint _auctionId)\n        public\n    {\n        require(msg.sender != auctions[_auctionId].highestBidder, \"Highest bidder can't withdraw\");\n        require(bids[_auctionId][msg.sender] > 0, \"No pending bids\");\n\n        uint bal = bids[_auctionId][msg.sender];\n        bids[_auctionId][msg.sender] = 0;\n        payable(msg.sender).transfer(bal);\n\n        emit Withdraw(_auctionId, msg.sender, bal);\n    }\n}",
  "sourcePath": "/Users/yurivisser/Dev/open-solidity-contracts/contracts/MultiEnglishAuction.sol",
  "compiler": {
    "name": "solc",
    "version": "0.8.11+commit.d7f03943.Emscripten.clang"
  },
  "schemaVersion": "3.4.2",
  "updatedAt": "2022-03-26T14:45:38.062Z",
  "devdoc": {
    "kind": "dev",
    "methods": {
      "getRoleAdmin(bytes32)": {
        "details": "Returns the admin role that controls `role`. See {grantRole} and {revokeRole}. To change a role's admin, use {_setRoleAdmin}."
      },
      "grantRole(bytes32,address)": {
        "details": "Grants `role` to `account`. If `account` had not been already granted `role`, emits a {RoleGranted} event. Requirements: - the caller must have ``role``'s admin role."
      },
      "hasRole(bytes32,address)": {
        "details": "Returns `true` if `account` has been granted `role`."
      },
      "renounceRole(bytes32,address)": {
        "details": "Revokes `role` from the calling account. Roles are often managed via {grantRole} and {revokeRole}: this function's purpose is to provide a mechanism for accounts to lose their privileges if they are compromised (such as when a trusted device is misplaced). If the calling account had been revoked `role`, emits a {RoleRevoked} event. Requirements: - the caller must be `account`."
      },
      "revokeRole(bytes32,address)": {
        "details": "Revokes `role` from `account`. If `account` had been granted `role`, emits a {RoleRevoked} event. Requirements: - the caller must have ``role``'s admin role."
      },
      "supportsInterface(bytes4)": {
        "details": "See {IERC165-supportsInterface}."
      }
    },
    "version": 1
  },
  "userdoc": {
    "kind": "user",
    "methods": {
      "pushWithdrawl(uint256,address)": {
        "notice": "Ability for  admin role to push a withdrawl"
      }
    },
    "version": 1
  }
}